:020000040800F2
:10000000901B0020D1330008F9310008FB310008B3
:1000100000000000000000000000000000000000E0
:10002000000000000000000000000000FF31000898
:100030000000000000000000013200080332000848
:100040006B190008372600083B2600087F3300089C
:100050008B330008F5330008F7330008F933000844
:10006000FB330008FD3300080B320008FF330008A3
:100070000134000803340008053400080734000880
:1000800009340008153200080B3400080D3400084C
:100090000F3400082532000811340008133400081A
:1000A0001534000817340008193400081B34000800
:1000B0001D3400081F3400082134000810B5040066
:1000C000002C01D1012014E03D20205C002805D146
:1000D00000203C216054200000F048FE02203D2119
:1000E0006054211D206800F083FB01203D216054F5
:1000F000002010BD00B5010001200A68D26802434B
:100100000B68DA600A6892685207520F062A04D018
:100110000B681B6818430B681860002000BD10B501
:100120000400002C01D1012014E03D20205C0028B7
:1001300005D100203C216054200000F00DFF02207A
:100140003D216054211D206800F052FB01203D211B
:100150006054002010BD10B50400002C01D1012016
:1001600014E03D20205C002805D100203C21605493
:10017000200000F0F2FE02203D216054211D206885
:1001800000F036FB01203D216054002010BDF8B581
:1001900004000F0016001D003D20205C022801D144
:1001A0000220BFE03D20205C01280AD1002E05D1AD
:1001B000280080B2002801D00120B3E002203D21B8
:1001C00060543800002806D0042822D008283ED0E9
:1001D0000C285AD077E05548616A88625448616AB1
:1001E000C8625448616A08632B009BB22068020011
:1001F00034323100606A00F0DDFE002801D00120B9
:1002000090E02068C0688021890001432068C160B7
:1002100059E04648A16A88624548A16AC8624548D3
:10022000A16A08632B009BB22068020038323100BB
:10023000A06A00F0BFFE002801D0012072E0206813
:10024000C0688021C90001432068C1603BE0374895
:10025000E16A88623648E16AC8623648E16A086342
:100260002B009BB2206802003C323100E06A00F0B3
:10027000A1FE002801D0012054E02068C068802140
:10028000090101432068C1601DE02848216B886294
:100290002748216BC8622748216B08632B009BB25B
:1002A0002068020040323100206B00F083FE0028FD
:1002B00001D0012036E02068C06880214901014357
:1002C0002068C160FFE701223900206800F00EFCC1
:1002D0002068194988420BD020681849884207D005
:1002E00020681749884203D020680F49884201D10D
:1002F000012000E00020C0B2002806D02068406C39
:100300008021090201432068416420688068410718
:10031000490F062905D020680068012202432068A1
:1003200002600020F2BD000000480140690700089B
:10033000AD07000855070008002C014000400140AF
:100340000044014070B50400022620680069304076
:1003500000281CD02068C0683040002817D0022038
:10036000C0432168086101202077206880698007E8
:10037000800F002803D0200000F008FF05E02000D7
:1003800000F005FF200000F0BCFF002020770425CE
:1003900020680069284000281CD02068C0682840D8
:1003A000002817D00420C043216808612677206800
:1003B0008069C02189000140002903D0200000F09D
:1003C000E5FE05E0200000F0E2FE200000F099FFCD
:1003D00000202077082620680069304000281BD0C4
:1003E0002068C0683040002816D00820C04321682B
:1003F000086125772068C0698007800F002803D036
:10040000200000F0C3FE05E0200000F0C0FE200048
:1004100000F077FF00202077102021680969014053
:1004200000291CD02168C9680840002817D0102076
:10043000C0432168086126772068C069C02189000F
:100440000140002903D0200000F0A0FE05E02000BC
:1004500000F09DFE200000F054FF002020770120D6
:1004600021680969014000290BD02168C96808404A
:10047000002806D00120C04321680861200000F058
:10048000CBFF802021680969014000290BD0216839
:10049000C9680840002806D08020C0432168086150
:1004A000200000F0D4FF40202168096901400029A4
:1004B0000BD02168C9680840002806D04020C043FE
:1004C00021680861200000F0C3FF2020216809692D
:1004D000014000290BD02168C9680840002806D0D7
:1004E0002020C04321680861200000F0B2FF70BDE9
:1004F000F8B504000E0017003C20205C012801D153
:10050000022029E001253C20255402203D21605491
:100510003800002806D0042809D008280CD00C2860
:100520000FD013E03100206800F0A6F90EE0310092
:10053000206800F0DFF909E03100206800F014FACB
:1005400004E03100206800F04DFAFFE73D2025541B
:1005500000203C2160540020F2BDF8B504000E00DC
:1005600017003C20205C012801D1022075E0012504
:100570003C20255402203D2160543800002806D03C
:1005800004281BD0082832D00C2847D05FE0310067
:10059000206800F071F92068806908210143206813
:1005A000816120688069042188432168886120680E
:1005B0008069316901432068816148E03100206829
:1005C00000F098F9206880698021090101432068C2
:1005D000816120688069214901402068816120682B
:1005E0008069316909020143206881612FE031008F
:1005F000206800F0B9F92068C0690821014320682B
:10060000C1612068C069042188432168C8612068ED
:10061000C069316901432068C16118E03100206878
:1006200000F0E0F92068C0698021090101432068D9
:10063000C1612068C069094901402068C161206822
:10064000C0693169090201432068C161FFE73D20AB
:10065000255400203C2160540020F2BDFFFBFFFF29
:10066000F8B504000D003C20205C012801D10220D7
:100670006DE001263C20265402203D216054206874
:10068000806877218843324F074020688760286858
:10069000002851D010284FD020284DD030284BD0E2
:1006A00040283FD0502829D0602831D0702809D068
:1006B00080214901884204D08021890188420FD0DD
:1006C0003FE03EE0EB686A68A968206800F0F8F94E
:1006D00020688068772101430F002068876030E040
:1006E000EB686A68A968206800F0EAF92068806809
:1006F0008021C90101432068816022E0EA686968BD
:10070000206800F0A7F95021206800F0D1F918E026
:10071000EA686968206800F0B1F96021206800F09B
:10072000C7F90EE0EA686968206800F093F9402193
:10073000206800F0BDF904E02968206800F0B8F9ED
:10074000FFE73D20265400203C2160540020F2BDEC
:10075000FF00FFFF38B50400656A01203D216854A1
:10076000280000F077FE31BD38B50400656A01202D
:100770003D216854696A8C4201D1287710E0A86A4B
:10078000844202D1022028770AE0E86A844202D13A
:100790000420287704E0286B844201D108202877C0
:1007A000280000F0AEFD0020287731BD38B50400E8
:1007B000656A01203D216854696A8C4201D128771D
:1007C00010E0A86A844202D1022028770AE0E86A91
:1007D000844202D10420287704E0286B844201D1AE
:1007E00008202877280000F036FE0020287731BD49
:1007F00010B50368784A904206D08024E405A042F0
:1008000002D0764CA04204D17024A3431C004B6854
:100810002343904212D08024E405A0420ED06F4CB6
:10082000A0420BD06E4CA04208D0844CA04205D010
:10083000834CA04202D0834CA04203D1824C1C4086
:10084000CB6823438024A3434C691C4304608B681A
:10085000C3620B688362904208D0784A904205D008
:10086000774A904202D0774A904201D10A690263E6
:100870000122426110BD000070B5026A01239A4353
:100880000262056A43688469702294430322944398
:100890000A6822430224A5438C682C434E4DA8428B
:1008A00008D0664EB04205D0654EB04202D0654ECB
:1008B000B04206D10826B4432600CC68344304264F
:1008C000B443A84208D05D4DA84205D05C4DA84273
:1008D00002D05C4DA84207D15C4D1D40714B2B40AE
:1008E0004D691D438B692B43436082614D684563AD
:1008F000046270BD70B5026A10239A430262036AF3
:1009000042688469524D25404F4E2E400C682402A7
:1009100034432025AB438D682D011D432E4B984257
:1009200007D18026B5432E00CD682D0135434026E2
:10093000B543984208D0414B984205D0404B98426D
:1009400002D0404B984209D14B4B1340564A1A40B3
:100950004B699B0013438A6992001A434260846189
:100960004B688363056270BDF0B5026A374B134074
:100970000362046A4268C56970239D4303239D4353
:100980000B682B43474D25408C6824022C43124DA5
:10099000A84206D1444E2640CC6827023743364C45
:1009A0003C40A84208D0254DA84205D0244DA8427D
:1009B00002D0244DA84209D13C4D1540464A2A4058
:1009C0004D692D0115438A6912012A434260C361B2
:1009D0004D68C5630462F0BD002C01400004004076
:1009E0000020004070B5026A304B13400362036A76
:1009F0004268C469164D2540134E2E400C682402EF
:100A00003443354D1D408B681B032B43334DA842A7
:100A100008D00A4DA84205D0094DA84202D0094D80
:100A2000A84204D12E4D15404A6992012A434260E2
:100A3000C4614D680564036270BD00000040014060
:100A40000044014000480140FFFCFFFFFFFEFFFFA4
:100A5000FF8FFFFF30B4036A046A0125AC430462D0
:100A60008469F025AC43150125430A24A3430B43B5
:100A70008561036230BC7047FFFBFFFF30B4036A3F
:100A80001024A34303628469036A164D25401403AE
:100A90002C43A025AB430D011D438461056230BC8E
:100AA00070470000FFFDFFFFFFF7FFFFFFEFFFFFB5
:100AB000826870239A4307230B4313438360704774
:100AC00070B48468084D254016000E431C02344360
:100AD0002C43846070BC7047FFDFFFFF002C014097
:100AE000FFBFFFFFFF0FFFFFFF00FFFF70B41F23DB
:100AF00001240D001D40AC40056AA5430562056A4E
:100B00000E00334016009E402E43066270BC7047B4
:100B100030B595B01022002111A800F09DFC0822EC
:100B20000021684600F098FC1C2200210AA800F071
:100B300093FC2022002102A800F08EFC894D8A48F7
:100B40002860C44868600024AC60E8602C616C6177
:100B5000AC612800FFF7B2FA002801D000F076FC63
:100B600080204001119011A92800FFF779FD00288D
:100B700001D000F06BFC2800FFF7D1FA002801D06B
:100B800000F064FC009401946946280000F06EFCBB
:100B9000002801D000F05AFC0A940B940C940D9498
:100BA0000E940F94109404220AA92800FFF7A0FCC9
:100BB000002801D000F04AFC0294039404940594A8
:100BC0000694802080010790099402A9280000F073
:100BD00084FC002801D000F039FC280000F03EF928
:100BE00015B030BD30B58DB01022002109A800F03D
:100BF00033FC08220021684600F02EFC1C22002154
:100C000002A800F029FC944CC448206000256560CF
:100C1000A5603B20E0602561A5612000FFF74EFA4A
:100C2000002801D000F012FC80204001099009A9A1
:100C30002000FFF715FD002801D000F007FC200080
:100C4000FFF789FA002801D000F000FC009501951B
:100C50006946200000F00AFC002801D000F0F6FBF5
:100C600060200290039504950695082202A92000B1
:100C7000FFF773FC002801D000F0E8FB200000F033
:100C8000EDF80DB030BD3EB508220021684600F0F9
:100C9000E3FBA34CA3482060A34860600025A56047
:100CA0006420E060A5612000FFF708FA002801D069
:100CB00000F0CCFB009501956946200000F0D6FBC2
:100CC000002801D000F0C2FB37BD30B58FB01C2228
:100CD000002108A800F0C0FB20220021684600F097
:100CE000BBFB924D9248286000246C60AC603B20B6
:100CF000E8602C616C61AC612800FFF7DFF9002827
:100D000001D000F0A3FB2800FFF725FA002801D04E
:100D100000F09CFB60200890172009900A940B9427
:100D20000C940D940E94002208A92800FFF715FCDE
:100D3000002801D000F08AFB0094019402940394EF
:100D4000049480208001059007946946280000F0F3
:100D5000C4FB002801D000F079FB280000F07EF8E9
:100D60000FB030BD540A0020002C014038B50400FB
:100D70002068704988420AD1802109016E480268C2
:100D80000A430260006801400091009861E0206819
:100D90006249884209D10221684802680A43026018
:100DA000006801400091009853E020685D49884246
:100DB00011D11021614802680A43026000680140B5
:100DC0000091009800220021112000F032FC112037
:100DD00000F039FC3DE020685549884239D1802136
:100DE0008902554802680A43026000680140009188
:100DF0000098534D53482860102068600020A86078
:100E00008021E9608021490029616861A861C020D2
:100E10008001E861280000F0A1F8002801D000F06E
:100E200015FB49480168494A0A4002600168E0220E
:100E3000D2000A4302606562280024300460256203
:100E4000046000220121152000F0F3FB152000F0C2
:100E5000FAFB31BDE7030000940A002010B586B00C
:100E6000040014220021684600F0F6FA2068314997
:100E7000884218D18020800235490A6802430A60FE
:100E800009680840059005988020800000900221A4
:100E90000191002002900390049169469020C005C2
:100EA00000F0EAFB37E020681C49884217D1802116
:100EB0000903274802680A4302600068014005915F
:100EC00005988020400000900220019000200290B0
:100ED0000390049069461F4800F0CEFB1BE0206899
:100EE0001349884217D18020800219490A680243B9
:100EF0000A6009680840059005984020009002208B
:100F000001900020029003900520049069469020F3
:100F1000C00500F0B1FB06B010BD000000040040A9
:100F2000D40A0020001000407FBB0000140B0020FA
:100F300000440140002C0140181002401C100240E7
:100F4000D009002030000240A8000240FFF0FFFF5F
:100F5000141002400008004870477047F8B50400BC
:100F600000252F00002C01D1012020E002202121AA
:100F70006054206801680E4808406168A2680A430E
:100F8000E168114322690A4361691143A2690A4376
:100F9000E6691643064320680660200000F0D0F89A
:100FA000A563012021216054202025540020F2BD9A
:100FB0000FC0FFFFF7B504001F000020060020212E
:100FC000615C012901D1022039E00125290020229C
:100FD000A1542121615C01292BD102212122A1549C
:100FE000A0632068006801218843216808603B00F5
:100FF000029A0199200000F08EF8E06A002806D0DD
:10100000206800680E210143206801600BE0206821
:1010100000680A21014320680160206800680421FB
:1010200088432168086020680068054320680560DF
:1010300003E020216054022006003000C0B2FEBD53
:1010400070B50400E06B0568206806680420216C18
:1010500002008A402A40002A16D0064214D0216895
:101060000968890605D42168096804229143226829
:101070001160216C8840E16B4860E06A002849D02B
:101080002000E16A884745E00220216C02008A4086
:101090002A40002A1CD006421AD021680968890615
:1010A00008D4216809680A2291432268116001214D
:1010B0002122A154216C8840E16B4860002020214E
:1010C0006054A06A002825D02000A16A884721E04A
:1010D0000820216C02008A402A40002A1AD03040A1
:1010E000002817D0206800680E2188432168086016
:1010F0000120216C02008A40E16B4A60A06321213B
:101100006054002020216054206B002802D0200071
:10111000216B884770BD30B50124056CAC40C56BB0
:101120006C60046863604468102C04D10468A26099
:101130000468E16003E00468A1600468E26030BD17
:1011400010B5040020680C4988420AD220680B4977
:101150004018142100F0B2FB800020640848E063CE
:1011600009E0206807494018142100F0A7FB80001F
:1011700020640548E06310BD08040240F8FFFDBF8D
:1011800000000240F8FBFDBF0004024070477047BA
:1011900001205E490870704730B5020000231C0032
:1011A000E4B2182C0EDA5A4C24781D00EDB24C55DE
:1011B000D40204D5574C24781D00EDB24C55520092
:1011C0005B1CECE730BD0020534908807047F8B540
:1011D00001263000694608704F4C2088002802D054
:1011E0005B281DD072E04A4D4C480068C06A03215C
:1011F00000F064FB287028780221484345490870B4
:10120000002108000200D2B2502A07DA444A030043
:10121000DBB204256B43D150401CF3E75B202080F8
:101220003A480178002901D1002053E00025290027
:1012300001703C480168002917D03B49384B0A68C7
:1012400004277A439D500A68521C0A60374A17687F
:101250009C460A6804235A4363469F500968344AEF
:101260001268914216D3056014E02F492C4B0A688E
:1012700004277A439D500A68521E0A602B4A176859
:101280009C460A6804235A4363469F500968002914
:1012900000D106602800C0B250280FDA2548290086
:1012A000C9B21822514341181D482A00D2B2042362
:1012B0005A438058FFF770FF6D1CEBE7F023DB000B
:1012C0001C4A00211548FEF762FFA7E70020010035
:1012D00020800320F2BD00B500201749086017499F
:1012E0000A68521C0A600A68F023DB009A4202D3A3
:1012F0001349086004E00F480968405C1149086020
:1013000000BD00210E4A1160704700008B0B0020C9
:101310008C0B00208D0B0020880B0020140B00206C
:10132000AC0700209C070020800B0020A4070020B1
:10133000A00700201C000020104401407C0B00206E
:10134000004401403444014080B500F00FFB00F040
:1013500030F800F01BFB00F0A7FBFFF743FC00F0A8
:10136000B9FB00F041FC00F0A3FCFFF7D1FBFFF755
:10137000ACFC00F0F9FC00F047FDFFF784FC00F046
:1013800051FDFFF720FF00F053FD102029490860B0
:1013900080208002284908602848FEF7ABFE8020A4
:1013A000C00127490860082026490860FFF70FFFA1
:1013B000FCE730B591B03422002104A800F04CF8CD
:1013C00010220021684600F047F811200490012007
:1013D0000590099010200A9002240D94802040026C
:1013E0000E908020C0020F900025109504A800F0F8
:1013F00025FD002801D000F029F807200090019475
:10140000029503950121684600F0C8FF002801D02D
:1014100000F01CF811B030BD10B50400074884423C
:1014200007D1FFF7B5FE08480168802292004A40C4
:10143000026010BD085801400C580140D40A002039
:101440001808004818000048140800487047704702
:10145000704770477047704710B5040008001100CE
:101460000200200001F0C0F8200010BD70B502009D
:101470003C20105C012801D102202DE001203C23FA
:10148000D05402233D24135513685D6813689B688C
:101490007024A5430C682C4315686C601568274EB2
:1014A000B5420CD015688026F605B54207D0156800
:1014B000234EB54203D01568224EB54206D1802591
:1014C000AB431D004B682B431568AB603D25505561
:1014D00000203C255055002070BD30B50200002092
:1014E00003003C24145D012C01D1022023E00124DF
:1014F0003C255455FF24A343CC681C43124D254082
:101500008B682B43114C1C404B682343104C1C40F0
:101510000B6823430F4C1C400B692343064C1C40B3
:101520004B6923430C4C1C40CB6923431468636410
:101530003C241055002030BDFFDFFFFF002C014090
:101540000004004000400140FFFCFFFFFFFBFFFFE5
:10155000FFF7FFFFFFEFFFFFFFBFFFFF00B5010039
:1015600049B2002905D40121C206D20E91403C4A5D
:10157000116000BDF0B5020052B2002A1CD4032253
:10158000384B040064B2A40804256C431C59FF25A1
:101590001600064008277E43B540AC438D01EDB2EE
:1015A00002400826724395402543020052B2920839
:1015B000042462439D5022E00F242B4A032305009C
:1015C0006DB22540083DAD0804267543060076B28D
:1015D0003440083CA408042674431659FF27BC462F
:1015E0001C00044008277C436746A740BE438C018B
:1015F000E4B2034008277B439C4034435451F0BD80
:1016000010B50400601E80214904884201D30120E6
:101610000EE0601E1549086003210020C043FFF75B
:10162000A9FF002012490860072012490860002025
:1016300010BD70B505000C0016002100280040B256
:10164000FFF798FF70BD10B50400200040B2FFF70F
:1016500085FF10BD10B504002000FFF7D1FF10BDBD
:1016600000E100E000E400E01CED00E014E000E038
:1016700018E000E010E000E0FCB50200002408687B
:10168000E040002800D1F6E0012508682E00A640C1
:10169000064001960198002800D1EAE04868022837
:1016A00002D0486812281FD1E008042670431018A1
:1016B000076A072000970F26B44627000740042634
:1016C00077436646BE40009FB743BC460E6927007D
:1016D000384004277843864067463E433300E0089D
:1016E000042670431018036217680326BC462700BF
:1016F000022047433000B8406746874300974F6851
:101700003740BC4620000227784367468740009850
:10171000074317604868012808D04868022805D0A8
:101720004868112802D04868122820D193689C4646
:1017300023000220434330009840634683430093D4
:10174000C868844623000220434360469840009BBB
:10175000184300900098906053682800A04083438D
:10176000486800092840A040184307005760D36824
:101770009C46230002204343300098406346834345
:1017800000938B689C4620000223584363468340A5
:1017900000980343D3604868C0006AD5364807689C
:1017A0002F43076000682840009000983A4884461C
:1017B000A708042047436046C05900900F27BC4645
:1017C0002700300038400427784367468740009858
:1017D000B8439027FF05BA4201D1002512E02F4BF4
:1017E0009A420FD02E4B9A4201D102250AE02D4B8E
:1017F0009A4201D1350005E02B4B9A4201D10425D4
:1018000000E0052523001E4004235E43B540054348
:101810002148A30804267343C550244B1868019E31
:10182000B0434E68F60302D50500019828431860BE
:101830001F4D2B68019EB3434E68B60302D51800B6
:10184000019B03432B601B4D2868019EB0434E68EB
:10185000F60202D50300019818432860164D2B6844
:10186000019EB3434E68B60202D51800019B0343A4
:101870002B60641C03E7F3BD1810024000B5130091
:10188000DBB2002B03D00B009BB2836102E00B00A4
:101890009BB2836200BD00000800014000040048C4
:1018A00000080048000C00480010004800040140F7
:1018B00004040140080401400C0401400022030A12
:1018C0008B420BD203098B4219D243088B422ED292
:1018D000411A00D20146524110467047FF220902C8
:1018E0003FD012068B4205D3121209028B4201D35C
:1018F0001212090203098B4219D300E0090AC30935
:101900008B4201D3CB01C01A524183098B4201D3D0
:101910008B01C01A524143098B4201D34B01C01ABB
:10192000524103098B4201D30B01C01A5241C30833
:101930008B4201D3CB00C01A524183088B4201D3A2
:101940008B00C01A524143088B4201D34B00C01A8E
:101950005241884200D3401A5241CFD2014610462C
:10196000704708B500F068FE08BDFEE780B5064880
:10197000016810220A430260002000F05FFE00F0C0
:1019800085FE002002BD000000200240F8B586B0B0
:10199000142200216846FFF75FFD802109033C48BF
:1019A00002680A430260026811400591059980218E
:1019B000C90302680A430260026811400591059953
:1019C0008021890202680A43026002681140059181
:1019D00005998021C90202680A430260006801403B
:1019E000059105982B4C002221002B48FFF746FF5C
:1019F0002A4E9027FF05002231003800FFF73EFFF6
:101A00000022E0212648FFF739FF009401240194C9
:101A100000250295039569461F48FFF72DFE0096A5
:101A200001940295039569463800FFF725FE802052
:101A300000900220019002950326039604956946C2
:101A40003800FFF719FE20200090019502956946A5
:101A50001148FFF711FE0096124801900295694661
:101A60000F48FFF709FE8020400100900195029584
:101A700069463800FFF700FEE020009001940295CF
:101A8000039569460648FFF7F7FD07B0F0BD00BFB4
:101A900014100240CC620000000800480B0D00004A
:101AA000000400480000111080B5012008490A68B0
:101AB00002430A6009680840009000980022002153
:101AC0000A20FFF7B6FD0A20FFF7BDFD01BD00BFEC
:101AD000141002401FB50C2200216846FFF7BCFC21
:101AE0003C4C3D48206000206060A060E060012127
:101AF0002161042262610200227602006276020005
:101B0000A2760200E276FF22C232E2612062242243
:101B1000A054A162200000F0D3FD002801D0FFF7FF
:101B200095FC02200090802040010190802040051B
:101B300002906946200000F0A9FE002801D0FFF7BE
:101B400085FC0E2000906946200000F09FFE0028D2
:101B500001D0FFF77BFC1FBD70B586B006001422D4
:101B6000002101A8FFF778FC30681B4988422FD17B
:101B70008020800019490A6802430A600968084009
:101B80000090009880218902154802680A4302608B
:101B900002681140009100998021090302680A43FC
:101BA0000260006801400091009804200190032425
:101BB00002940025039501A99020C005FFF75CFD64
:101BC000102001900294039501A90648FFF754FDE7
:101BD00006B070BD140A0020002401401810024015
:101BE00014100240000800481CB508220021684675
:101BF000FFF732FC2A4C2B482060200000F00EFF3B
:101C0000002801D0FFF722FC002000900190002264
:101C10006946200000F018FF002801D0FFF716FCED
:101C200010226946200000F00FFF002801D0FFF7C6
:101C30000DFC13BD10B586B004001422002101A8CC
:101C4000FFF70AFC20681749884226D180208005CA
:101C500015490A6802430A60096808400090009824
:101C60008020800211490A6802430A60096808401E
:101C700000900098302001900320029000200390F3
:101C800001A99020C005FFF7F7FC002200211120D8
:101C9000FFF7CFFC1120FFF7D6FC06B010BD000007
:101CA000540B0020007400401C100240141002402D
:101CB00080B52848284901608221490041600021FF
:101CC0008160A022D200C260016141618022D20203
:101CD00082612822C2610162416281620722C2627E
:101CE00001630821416300F011FF002801D0FFF7D4
:101CF000ADFB01BD10B586B004001422002101A87F
:101D0000FFF7AAFB20681449884221D18020C00136
:101D100012490A6802430A60096808400090009866
:101D20008020C0020E490A6802430A600968084020
:101D300000900098F0200002019002200290002004
:101D4000039003210491059001A90648FFF794FC34
:101D500006B010BD6C090020003800401C10024085
:101D6000141002400004004880B522482249016056
:101D7000E1214902416000218160C16001610C22C2
:101D800042618161C1610162416200F02BFF002864
:101D900001D0FFF75BFB01BD10B586B00400142233
:101DA000002101A8FFF758FB2068134988421ED183
:101DB000202012490A6802430A600968084000901E
:101DC0000098802000030E490A6802430A600968EF
:101DD0000840009000980320019002210291002207
:101DE00003920490059101A90648FFF745FC06B04F
:101DF00010BD0000EC080020001401401810024043
:101E0000141002400008004880B50349034801F05F
:101E1000C6F90349087001BD740B002008000020BA
:101E20008A0B00200020014908807047840B0020A5
:101E30000020014908807047860B0020F8B584B067
:101E40000400002C01D101209EE22078C00768D553
:101E50000C20B8490A680240042A0BD00A681040D6
:101E6000082810D10868C0214902014080204002A2
:101E7000814208D1B0480068800352D560680028CC
:101E80004FD1012080E26068012806D1AA4801688C
:101E9000802252020A43026024E06068002809D1CF
:101EA000A5480168A54A0A4002600168A44A0A40A0
:101EB000026017E0606805280BD19F480168802206
:101EC000D2020A4302600168802252020A43026081
:101ED00008E099480168994A0A4002600168984AF6
:101EE0000A400260606800280DD001F063F9050027
:101EF00091480068800314D401F05CF9401B652808
:101F0000F6D3032040E201F055F905008A48006845
:101F1000800306D501F04EF9401B6528F6D3032057
:101F200032E2022620683040002854D00C2081493B
:101F30000A680240002A0BD00A681040082819D10C
:101F40000868C0214902014080200002814211D16D
:101F5000794801683140002904D0E168012901D0A5
:101F6000012011E20168F82291432269D2000A435C
:101F7000026030E0E06800281AD06F4F3868012115
:101F80000143396001F016F9050038683040002837
:101F900006D101F00FF9401B0328F6D30320F3E12B
:101FA0003868F82188432169C9000143396012E08B
:101FB000614F386801218843386001F0FBF8050063
:101FC00038683040002806D001F0F4F8401B0328A0
:101FD000F6D30320D8E12078000728D5E06900284F
:101FE00012D0A94F386801210143396001F0E2F8AD
:101FF000050038683040002819D101F0DBF8401B9B
:102000000328F6D30320BFE19F4F3868012188439E
:10201000386001F0CFF8050038683040002806D05D
:1020200001F0C8F8401B0328F6D30320ACE10427D5
:1020300020683840002800D18DE0002069460870F3
:1020400080204005BD490968014000290AD1BB49EB
:102050000A6802430A600968084003900398012057
:1020600069460870B6480068C00514D4B4480068D2
:10207000802149000143B248016001F09BF805004E
:10208000AF480068C00506D401F094F8401B6528ED
:10209000F6D3032078E1A068012805D1BB48016888
:1020A00001220A43026021E0A068002809D1B74854
:1020B000016801229143016001680422914301609B
:1020C00014E0A068052808D1B048016839430160D0
:1020D000016801220A43026008E0AC48016801225D
:1020E000914301600168042291430160A0680028C7
:1020F0000FD001F05FF80500A448006830400028C8
:1021000020D101F057F8401BA1498842F4D30320A5
:102110003AE101F04FF805009C4800683040002883
:1021200010D001F047F8401B99498842F4D30320AE
:102130002AE100BF0410024000100240FFFFFEFF32
:10214000FFFFFBFF68460078012804D17B48016847
:10215000904A0A4002602078C00650D56069012884
:1021600022D18D48006807438B4807608A48006881
:10217000012101438848016001F01CF805008648F0
:1021800000683040002806D101F014F8401B0328F5
:10219000F5D30320F8E080480168F8229143A26952
:1021A000D2000A4302602AE00421C94360698842E0
:1021B0000BD179480268114001600168F82291430F
:1021C000A269D2000A43026019E07348006807431D
:1021D0007148076070480068012188436E490860B3
:1021E00000F0E8FF05006C4800683040002806D089
:1021F00000F0E0FF401B0328F5D30320C4E0207863
:10220000800643D50C20B4490A6802400C2A09D044
:102210000A68104008280ED1C02040020968014019
:10222000814208D15C480068C0032FD5206A01288C
:102230002CD00120A8E0206A002813D0564F802619
:10224000760238683043386000F0B4FF0500386823
:10225000304000281AD100F0ADFF401B0328F6D310
:10226000032091E04C4E30689C490140316000F001
:10227000A1FF05003068C00308D500F09BFF401B9C
:102280000328F7D303207FE024100240606A00286F
:1022900079D0914800680C210140082952D0606A29
:1022A000022838D18E4F38688E490140396000F0DD
:1022B00081FF00908026B60438683040002807D09F
:1022C00000F078FF0099401A0328F3D303205BE065
:1022D000854801680F229143226B0A4302607E48C1
:1022E0000168824A0A40E16A1143A26A0A43026015
:1022F0003868802149040143396000F05BFF050024
:102300003868304000283ED100F054FF401B0328BD
:10231000F6D3032038E0724E3068724901403160D4
:1023200000F048FF0500306880012CD500F042FF26
:10233000401B0328F7D3032026E000BF1C100240F7
:1023400000700040606A012801D101201CE0624851
:10235000006801906448006802900198C021490219
:102360000140A06A81420CD102980007000F216B46
:10237000884206D10198F02189030140E06A814238
:1023800001D0012000E0002005B0F0BD2010024087
:1023900089130000FFFFFFEF34100240F3B581B056
:1023A0000400002C01D1012094E00125804E30680A
:1023B0002840029988420CD2306801218843029952
:1023C00001433160306828400299884201D00120E1
:1023D00080E002202168014000290FD021784907C0
:1023E00005D53D490A68E023DB0013430B603A49F9
:1023F0000A68F0239A43A36813430B6021682940BD
:1024000000293BD06168012905D135480068800367
:102410001AD401205EE06168022905D130480068C5
:10242000800111D4012055E06168032905D161487C
:102430000068C00308D401204CE02949096808401D
:10244000002801D1012045E0234F3868032188434B
:1024500061680143396000F0ADFE009038680C21DE
:10246000014060688000814208D000F0A3FE00991E
:10247000401A51498842F1D303202BE00298316879
:10248000294088420CD230680121884302990143D7
:102490003160306805400298854201D0012019E082
:1024A0002078400706D50C480168444A0A40E16894
:1024B0001143016000F01CF84149074A12681209F3
:1024C0001207120F895CC8403E490860002000F0E6
:1024D000B5F80020FEBD000004100240FFFFFEFF23
:1024E00000100240FFFFFFFE2C100240FF7FC2FFE2
:1024F000F0B589B005A83549102200F061FE01A8A9
:102500003349102200F05CFE0024200000942500D6
:1025100026002D490F680C213940042904D00829D0
:1025200004D00C2930D031E02A4830E00F2005A932
:10253000BA0C0240895C0E0001A9274A12681040BB
:10254000085C0090C0204002010039408022520205
:10255000914206D11F480099FFF7B0F9704305007A
:1025600010E001003940814206D11C480099FFF774
:10257000A5F97043050005E019480099FFF79EF999
:1025800070430500280002E0144800E0144809B038
:10259000F0BD0C480068704780B5FFF7FAFF11499D
:1025A000094A1268120A5207520F895CC84002BDDC
:1025B000002002403410024089130000FFF8FFFFA2
:1025C000C03300080400002004100240A0330008BB
:1025D000B03300080024F4002C100240006CDC0230
:1025E00000127A00EC3300081206130A1A43130C87
:1025F0001A4300BF094205D0830705D00270401C72
:10260000491EF9D1704700001300103906D330B4C9
:102610001400150010393CC0FCD230BC490700D36F
:102620000CC000D504C0890002D30280801C0029A0
:1026300000D502707047FEE77047FEE710B5040052
:10264000FA2080000E490978FFF738F901000D489B
:102650000068FFF733F9FEF7FDFF002801D00120E5
:102660000CE0042C09D2002221000020C043FEF718
:10267000E0FF05480460002000E0012010BD00BF1D
:10268000A8070020040000200000002081B00120E5
:1026900009490A6802430A600968084000900098E6
:1026A0008020400505490A6802430A60096808401D
:1026B0000090009801B07047181002401C100240B2
:1026C000F8B5040000252F002E00002C01D10120B8
:1026D000D4E0A06B002806D1E563280034216054C3
:1026E0002000FFF739FA1020A16B0140002900D02B
:1026F000BDE03900C9B2002900D0B8E00422216849
:1027000089681140002900D0B1E0A36B5C491940F1
:1027100002230B43A363216889688907890F012974
:102720000AD1012123681B680B40002B03D12368C9
:10273000DB681B0400D500E0290000290FD12168C7
:10274000C96818239943A3680B432168CB602168AB
:1027500009698B009B086168194323681961216826
:10276000CB68484919402368D960A16A012902D081
:102770008021490100E029002369022B00D02A00B2
:10278000B446237E9E03637EDB033343A67E76033B
:102790001E433143E3680B431A432421615C4E001E
:1027A000164361460E43E17E01290FD1A17E002927
:1027B00004D13100802676020E4307E0A16B20226F
:1027C0000A43A263E16B01220A43E263E169FF224B
:1027D000C232914204D03200E169266A0E431643A8
:1027E0002168C96831432268D160E16A80225205BC
:1027F000914214D0E16A012911D0E16A02290ED078
:10280000E16A03290BD0E16A042908D0E16A0529AD
:1028100005D0E16A062902D0E16A07290ED12168B4
:1028200049690722914322685161216849692C2234
:10283000A25C5207520F0A4321684A612168C968A5
:10284000114A0A40B24207D1E563A06B02218843D6
:1028500001210143A1630FE0A16B022291430843D0
:10286000A0630120E16B0143E163070004E0A16B79
:102870000843A063012007003800C0B2F2BD000089
:10288000FFFEFFFF1902FEFFE7FF3F83F8B50400DC
:102890000D0000273E00009780214905E06A88422C
:1028A00013D0E06A012810D0E06A02280DD0E06A57
:1028B00003280AD0E06A042807D0E06A052804D07B
:1028C000E06A062801D0E06A07283420205C01284D
:1028D00001D1022098E0012210003423E054206846
:1028E0008068400700D586E06868484B98425FD012
:1028F0002068806A2B689A40024320688262E06AFE
:10290000884228D0E06A012825D0E06A022822D037
:10291000E06A03281FD0E06A04281CD0E06A05287A
:1029200019D0E06A062816D0E06A072813D00720DD
:10293000A96822685269024091420CD02168496915
:10294000072291432268516121684969AA681040B1
:102950000843216848612868102805D02868112894
:1029600002D0286812284BD12868102802D1802074
:10297000000407E02868112802D18020C00301E08C
:102980008020400422490A68104308602868102803
:1029900036D1204800682049FEF790FF0A214843BD
:1029A0000090009800282BD00098401E0090F8E777
:1029B0002068806A29688A40904321688862286874
:1029C000102805D02868112802D02868122817D1AD
:1029D0002868102802D18021090407E028681128FE
:1029E00002D18021C90301E080214904084802681E
:1029F0008A43026004E0A06B20210143A16316001A
:102A0000342027543000C0B2F2BD00000110000095
:102A1000082701400400002040420F0010B50400C8
:102A2000002C01D101200EE02079002804D10020E3
:102A300060712000FFF7FEF8022020710020206165
:102A400001202071002010BDFCB504000020019081
:102A500000906379012B01D1022013E001266671F9
:102A60000223237123681F68254B93409F430B6803
:102A70004D681D432B0093403B4327683B60267104
:102A800060710020F6BD10B504008020800121682F
:102A900009680140002915D02168496B01400029CF
:102AA00010D004212171216901220A432261216889
:102AB00048632068006813490140206801602000D5
:102AC00000F098FB802080052168096801400029FA
:102AD00015D02168496B0140002910D004212171D3
:102AE000216902220A432261216848632068006844
:102AF0000549014020680160200000F07CFB10BD0A
:102B0000FE0F0000FFEFFFFFFFFFFFEF70B50400B7
:102B1000002C01D1012060E0606A00280025A56238
:102B20005D20205C002805D128005C216054200035
:102B3000FFF7E0F8022001005D22A1542168096836
:102B400040229143226811602449E2688A4201D3FD
:102B50002A0001E080225201E368F0263601B342E8
:102B600005D0E368E026F600B34200D0A562236BEF
:102B7000002B06D1E3688B4201D3206301E00120E2
:102B800020636068A16801432069084361690143CB
:102B9000A06980239B0018400843E1690143206A33
:102BA0000843A16A014320680160A069000C042168
:102BB0000840616A0143606B0843E16801431143C7
:102BC000206841602068C069054901402068C161F2
:102BD000256601205D216054002070BD01070000C2
:102BE000FFF7FFFF10B50400002C01D1012035E0F4
:102BF000A0690028FFD1606F002805D10020702156
:102C000060542000FFF7C8F824206067206800683F
:102C10000121884321680860200000F023F8012882
:102C200001D101201AE0606A002802D0200000F0E3
:102C300077F9206840680A490140206841602068AF
:102C400080682A2188432168886020680068012103
:102C5000014320680160200000F0D8F910BD000099
:102C6000FFB7FFFFFEB505000026370030006946BC
:102C70000870A868296901436A690A43E869104332
:102C8000296809689F4A0A40024329680A6029683E
:102C900049689D4A0A40E96811432A685160A96958
:102CA0002A6A0A43029229688968984A0A40029966
:102CB00011432A6891602968954A914215D1954837
:102CC00000688007800F002805D0022809D006D3AD
:102CD000032802D007E034006AE0022468E00424FC
:102CE00066E0082464E0102462E028688A4988428B
:102CF0001DD188480068C0218902014000290CD0FC
:102D00008020400281420CD08020800281420AD083
:102D1000C0208002814202D007E0340048E0022453
:102D200046E0042444E0082442E0102440E02868FF
:102D30007A4988421DD177480068C02109030140C3
:102D400000290CD08020C00281420CD080200003DA
:102D500081420AD0C0200003814202D007E0340043
:102D600026E0022424E0042422E0082420E01024A9
:102D70001EE02868A249884201D1340018E0286882
:102D8000A049884201D1340012E028689E49884257
:102D900001D134000CE02868B449884201D13400E4
:102DA00006E02868B249884201D1340000E01024CE
:102DB00080200002E969814258D12000C0B2002879
:102DC00006D0022813D004281BD0082828D032E0CF
:102DD000FFF7E2FB01900198022148436968490826
:102DE00040186968FEF76AFD80B2070026E068684F
:102DF0004008A04940186968FEF760FD80B20700EE
:102E00001CE0FFF775FB01900198022148436968B7
:102E1000490840186968FEF751FD80B207000DE0CF
:102E2000686840088021490240186968FEF746FD3D
:102E300080B2070002E0012069460870102F11D30C
:102E40008020400287420DD23900B54808407908F9
:102E50004907490F01436846418068464088296810
:102E6000C8604AE001206946087046E02100C9B206
:102E7000002906D0022911D0042919D0082924D00C
:102E80002CE0FFF789FB0190019869684908401818
:102E90006968FEF713FD80B2070022E06868400809
:102EA000A04940186968FEF709FD80B2070018E0E4
:102EB000FFF71EFB0190019869684908401869688E
:102EC000FEF7FCFC80B207000BE0696849080818AF
:102ED0006968FEF7F3FC80B2070002E00120694652
:102EE0000870102F06D380204002874202D2286843
:102EF000C76002E00120694608702E666E6668466B
:102F00000078FEBDF369FFEFFFCFFFFFFFF4FFFF87
:102F100000380140301002400044004000480040AA
:102F200000B52421415CC90707D5016849687E4A7C
:102F30000A40816A1143026851602421415C89077B
:102F400007D501684968794A0A40C16A1143026895
:102F500051602421415C490707D501684968744ADA
:102F60000A40016B1143026851602421415C09074A
:102F700007D5016849686F4A0A40416B11430268EE
:102F800051602421415CC90607D5016889686A4AF5
:102F90000A40816B1143026891602421415C8906DB
:102FA00007D501688968654A0A40C16B1143026808
:102FB00091602421415C490614D501684968604A42
:102FC0000A40016C114302685160016C8022520377
:102FD000914207D1016849685A4A0A40416C11433D
:102FE000026851602421415C090607D501684968DF
:102FF000554A0A40816C11430268516000BD0000CF
:10300000004C004000500040001401407CB5050019
:103010000024EC6700F0CEF806002868006800077E
:103020000CD54A48009033000022802189032800F3
:1030300000F022F8002801D0032016E0286800687C
:1030400040070CD541480090330000228021C9037D
:10305000280000F011F8002801D0032005E020200E
:103060006867A86770202C54002076BD00180140C6
:10307000001C01400024F400F4B504000D001F0002
:10308000069E2068C0692840A84201D1012000E0C6
:10309000002069460978884240D10020C04386421A
:1030A000EFD000F087F8C01B864201D3002E13D169
:1030B0002068006826490140206801602068806817
:1030C000012188432168886020206067A067002074
:1030D00070216054032022E0206800684007D0D5AA
:1030E000802000012168C96901400029C9D02168F8
:1030F0000862206800681649014020680160206865
:103100008068012188432168886020206067A0676B
:10311000E067002070216054032000E00020F2BD31
:10312000F0FF000000127A00FFFFFDFFFFFFFEFF2F
:10313000FFFFFBFFFF7FFFFFFFEFFFFFFFDFFFFF53
:10314000FFFFEFFFFFFF9FFFFFFFF7FFFFFFFF0105
:103150005FFEFFFFF4B50200012000242300144DA0
:103160006E7A022E19DA6E7AAC556E7A04277E4397
:10317000AE1972606E4636786F7AEF193E726E7ACB
:1031800037007F1C6F7233001D0030350D703A25FB
:103190004D702F258D70CC702000C0B2F2BD38B5B7
:1031A00005000C00002221002800FFF7D3FF32BDEC
:1031B000680B002001480068704700BF780B0020B2
:1031C00070B4103A03D378C9103A78C0FBD25307D1
:1031D00001D318C918C001D508C908C0D20704D343
:1031E0000B880380891C801C002A01D50B78037092
:1031F00070BC704770477047704700B5FEE7704776
:10320000704780B500F01EF801BD80B50948FDF794
:1032100017FF01BD80B50848FDF794F80748FFF790
:1032200032FC01BD80B5FEF756F80548FDF78AF877
:1032300001BD0000D0090020D40A0020540B00205A
:10324000140B002003480168034A127889180160B2
:10325000704700BF780B0020A807002070B401233E
:10326000002413E00168001D194202D04D466D1E76
:1032700049190C60091D121F042AFAD20D00960785
:1032800001D50C80AD1C1A4000D02C700268001DC6
:10329000002AE7D170BC704730B501684118446816
:1032A00062088A188368E40704D54C461B1901E0BC
:1032B000641C06D191420BD00C7864B2491C0D7885
:1032C000491C1D705B1C002CF2D4641EF7D5F1E77D
:1032D0000C3030BD010005480122027000787047B3
:1032E000010002480122027000787047A9070020FF
:1032F00010B40400002010BC704710B4040000207B
:1033000010BC704703000120C0B2704710B50749D8
:1033100079441831064C7C44163404E0081D0A68D0
:10332000891888470100A142F8D110BD08000000AB
:103330002400000029FFFFFFE4030000AC07002089
:103340000000000055FFFFFFDE00000098000000B5
:103350000000002000F00DF8002801D0FFF7D6FF94
:1033600000BF00BF002000BF00BFFDF7EDFF00F071
:1033700002F80120704780B500F002F801BDFEE7B9
:103380000746384600F002F8FBE7FEE780B500BFCD
:1033900000BF024A11001820ABBEFBE72600020066
:1033A00002030405060708090A0B0C0D0E0F101086
:1033B0000102030405060708090A0B0C0D0E0F1085
:1033C00000000000000000000102030406070809D5
:1033D000014880470148004725340008E1330008D0
:1033E00000BF00BF00BF00BFFFF7B4FF0000000038
:1033F00001020304FEE7FEE7FEE7FEE7FEE7FEE765
:10340000FEE7FEE7FEE7FEE7FEE7FEE7FEE7FEE794
:10341000FEE7FEE7FEE7FEE7FEE7FEE7FEE7FEE784
:10342000FEE7000070470004FC0017127A00D53256
:103430000008E1320008F1320008FB3200080533D1
:1034400000082781008100810081008100810081C6
:103450000081008100810081008100810081008164
:1034600000F2000001FD000028FD000564C83200E4
:02347000010158
:04000005080033E1DB
:00000001FF
