:020000040800F2
:10000000B01F0020595B0008F5580008F758000899
:1000100000000000000000000000000000000000E0
:10002000000000000000000000000000FB58000875
:100030000000000000000000FD580008FF58000804
:100040001F14000873140008F7190008FB190008B2
:10005000E72700080B5900089B3800081B590008C7
:1000600023450008EF530008255900086758000889
:10007000F35800088F5A0008B75A0008D15B0008EF
:10008000D35B00082F590008D55B0008D75B000838
:10009000D95B00083F590008DB5B0008DD5B000806
:1000A000DF5B0008E15B0008E35B0008E55B00083C
:1000B000E75B000849590008E95B0008FDB5B6B0E8
:1000C0003E9801AA0023002418C2069104A93B22ED
:1000D00088540F9319A8401C33900F2069468870EC
:1000E00013E0379C3500369F21780698B847069074
:1000F000002800D140E10F98401C0F90641C6D1E39
:10010000F2D136973798801937903798007825289C
:100110000ED1002009900A900B900C900D900E903B
:10012000002102240420189008201490379D0FE02D
:1001300001AA0021C943379801F0C0F8060001D197
:100140000F981BE1CDD50126DCE708000121014312
:100150006D1C28782028F8D023280BD02B2804D019
:100160002D2804D0302808D00AE02143F0E7080009
:100170001899ECE708000821E9E708001021E6E7F4
:100180002A280FD1389802681068121D389B1A600F
:100190001190002804D54242119208001899014399
:1001A0006D1C12E000201190B84A09E0119B9342A7
:1001B00005DA9E00F3185B001818303811906D1C9A
:1001C00028780300303B0A2BF0D328782E2803D060
:1001D0000020C043109027E06D1C28782A2808D101
:1001E000389800680268001D389B186010926D1CDA
:1001F0001AE02D2802D12D226D1C00E000220020E3
:100200001090A24B0BE0002A08D1109E9E4205DA06
:10021000B700BE1976003018303810906D1C287861
:100220000600303E0A2EEED304A801872E78310056
:1002300056487844FF30573001F052F8002801D07A
:100240006D1C00E0002604A83A214654405C682852
:1002500004D1287868280BD1622005E06C2807D1EA
:1002600028786C2804D1712004A93A2288546D1C86
:1002700024A80890287869460870681C379068465A
:1002800005782800253834D01C3800D19AE1001FA9
:10029000022800D896E10E3831D0401F01D100F07D
:1002A00010FD093800D18DE1801E01D100F0A7FDBD
:1002B000401E01D100F053FD401E022800D881E10C
:1002C000001F01D100F04BFD401F00D1D0E0401EC7
:1002D00001D100F0F6FC401E78D0C01E27D0801E51
:1002E00001D100F0EEFCC01E01D100F0EAFC00F0EC
:1002F000A5FD252024A908700120099034E06C2078
:1003000004A93A228854389800680268001D389978
:100310000860002A53D104A83B21405C00284AD041
:100320000024E44358487844FF305F3018E004A8C4
:100330003A21405C6C28E6D0389800680468001DBB
:10034000389908600794002C22D104A83B21405C16
:10035000002815D00024E4434D487844FF30333062
:1003600000F0CCFF201A07D124AA04A9369800F087
:1003700074FD002800D4C8E60020C04339B0F0BDA9
:1003800044487844FF300F300790EDE7DC5400001C
:10039000109D002D03D5200000F0D4FF09E02A00B5
:1003A0000021200000F0D6FF002801D0001B00E053
:1003B00028000A90D8E7384A7A44FF32233A04A941
:1003C000369800F0D4FD0028CED5D5E738980068DF
:1003D0000268001D389908600020C04300211040C9
:1003E00004AA03C224A80790089B3C2404A803C8BD
:1003F000002904D1002802D1109A002A14D0641ECA
:100400006D46AD7805403035EEB23A2E00DB27352B
:100410001D5500090A071043090901D1002803D01E
:10042000079A1D19AA42EAD33C20001B0A90191909
:1004300007911099884207DA081A0C9004A8018FD6
:10044000B94A0A4002878FE700298DD504A93822CE
:10045000895C14220A40102A86D11199099A891AB6
:100460000C9A891A081A002800DC7DE70C907BE7BB
:1004700004A83B21415C002910D00024E4434F48EC
:100480007844FF3039306BE738540000CBCCCC0CCB
:100490001054000028540000445400003A21405CED
:1004A00062286BD068281CD06A2847D06C2806D0F8
:1004B000712855D0742833D07A2823D06FE038982B
:1004C00000680168001D389A1060002906D10024D8
:1004D000E4433B487844FF30173841E70F98086001
:1004E00042E7389800680168001D389A10600029BA
:1004F00005D10024E44332487844C43030E70F98F3
:10050000088031E7389800680168001D389A10604B
:100510000029E3D10024E44329487844A2301FE7AE
:10052000389800680168001D389A10600029D5D1FC
:100530000024E44322487844863011E73898006864
:100540000268001D38990860002A05D10024E443A0
:100550001B4878446A3003E70F98C11703C203E7CA
:10056000389800680268001D38990860002AF3D1A5
:100570000024E443124878444630F1E63898006895
:100580000168001D389A1060002905D10024E44359
:100590000B4878442A30E3E60F980870E4E6389870
:1005A00000680168001D389A1060002996D1002467
:1005B000E443034878440830D2E600BFB452000058
:1005C000C852000038980268D21D0720824338982C
:1005D000026003CA389B1A6004AA03C2C80F02D083
:1005E00009982D210AE004A8008F204202D0099822
:1005F0002B2103E0C00705D50998202124AA115416
:10060000401C099024A809994318079319AA04A823
:1006100003C816AC03C4684600782021014368462D
:100620004170612909D01098002801D5062003E007
:1006300003D1672901D10120109004A803C8080044
:100640004C006415641C14D1090312D003200A90D5
:10065000613D1A2D04D251497944FF31413103E003
:100660004F497944FF313B310322180000F098FED6
:100670007AE6002C0BD1000309D103200A90613DDA
:100680001A2D18D347497944FF311B31ECE704A8F0
:1006900003C834AB03C334A830C8BEA003C820408D
:1006A000294080256D03A9420AD2002634AB30CB05
:1006B000604069400EE03C497944FF311339D3E78B
:1006C000080DB1A6C0CE361834A803C8B34D0D40EE
:1006D000AF49294304AB03C36846407861280FD172
:1006E000079830210170811C0791694609786129BA
:1006F00001D1782100E0582141700998801C0990AF
:1007000004A803C8A3A430CC04400D4002D1002C9F
:1007100000D186E168464078612800D0BFE010989B
:10072000002803D5212002E0EFFF0000401C1590B7
:10073000159F7F1C16A803C80022002300F03DFE71
:1007400004A830C802D2802000064540361F039618
:1007500019A90A7019A8461C002F57DD200029008E
:10076000002280235B0300F041FE4FD828004A009E
:10077000530D1A001C32002B18D0002A16DDB54B81
:100780009A4205DB1B05802212061040184310E038
:1007900082480840110501430D000CE0445100005F
:1007A00044510000485100004051000080221206D0
:1007B0001040002405002000290000F031FE1690B2
:1007C000FF1F002F09DD00F065FE02000B00200076
:1007D000290000F0C6FE04000D00F01D07210F22C5
:1007E0006B469A70169A002A0BDD491E09D4401EEA
:1007F0006E46B678164006701211F4E7401E0022CD
:100800000270491EFAD5C61D002FA7DC19A833991E
:10081000711A19AA521C159B0C00994200DD1C008C
:10082000002C35D48C4206DA411C095D082902DB14
:100830006946897800E00021230019ADED1801E038
:10084000641E6D1E5B1E2E788E42F9D00F2904D1D6
:10085000411CC95C491C401CC154002B04D519AA79
:10086000641C0398001D0390611E11D45318684640
:1008700000781D783035EEB23A2E02DB06003A3EA3
:10088000AD191D70491E5B1E0029F2D5694608701E
:100890001098002800D4C3E0601E1090C0E016A895
:1008A00030C86D006D086D49300048436C4900F058
:1008B000E5FE039007200399401A05DD02002000A1
:1008C000290000F044FC0AE042420020654900F0A3
:1008D0003EFC02000B002000290000F029FF6A46C0
:1008E0005278662A02D1039A0A3200E00622109B4F
:1008F0009A18142A00DD142219AB30241C705C1CD9
:1009000002E016A803C8159A002A49DD16AB03C3F6
:10091000159216A803C800F095FD239006460834EA
:10092000189D30000A2100F0ACFE0F0030000A21B3
:1009300000F0A7FE06003037601E077030000A2165
:1009400000F09FFE0F0030000A2100F09AFE060022
:10095000A41E303727706D1EE3D10834159808386F
:1009600015900028CDDD239800F084FD02000B00D7
:1009700016A803C800F0F5FD00223B4B00F039FF3C
:1009800016AA03C2C5E700BF02FCFFFFFFFFFFFF7F
:100990000000E03FFFFFFFFFFFFFFF7FFFFF0F8033
:1009A0003398201A19A94A1C039902E0401E491ED7
:1009B000521C1378302BF9D0039169464978662987
:1009C00002D10399491C06E069464978652901D19D
:1009D000012100E00021109B5C18A04200DA441EB7
:1009E000002C1DD4844204DA105D342801DD392145
:1009F00000E030212300501EC51801E0641E6D1E6A
:100A00005B1E2E788E42F9D0392902D1D15C491C67
:100A1000D154002B04D50200641C0398401C0390A1
:100A2000039D03926846067800F052FC406A007805
:100A300069460870109F20B2002804DC0124064893
:100A40007844143003906846407866280ED16D1CB7
:100A500026E000BFFF070000984E000097750000D9
:100A6000A08601000000F03F84D797416846407897
:100A7000672847D128B20321C943884246DBB842E0
:100A800044DA6D1C04A8008F1499C0B2084203D147
:100A900020B2B84200DA070028B23F1A00D500277A
:100AA0000A99079840182EB2002E00DDA9E0491CD3
:100AB0000A9130210170002F05DC04A8008F1499E1
:100AC000C0B2084206D00A98411C0A9169460978CA
:100AD000079A11547042874200DA7D422DB2684273
:100AE0000D907D1920B2854200DA2C0024B20B94BF
:100AF0002200039907980A9BC01800F051FC281B9C
:100B00000E90C4E0612E14D1702615E020B2B842D8
:100B100006DA04A9098F149AC9B2114200D107005C
:100B20007F1E00D50027672E01D1652604E04526EB
:100B300002E0412E00D150260A98411C0A910399E7
:100B40000978079A11540398411C002F05DC04A86A
:100B5000008F149AC0B2104219D00A98421C0A920F
:100B60006A461278079B1A54002F10DD641E20B2CB
:100B7000874200DA3C0022B207980A9BC01800F0B6
:100B80000FFC24B20A9800190A90381B0D900798A0
:100B90000A994018067029B2002903D42B2141700C
:100BA000871C03E02D224270871C4D42002414A9AB
:100BB00028000D0005E00A2100F060FD2970641C8A
:100BC0006D1C00B20028F6DC012C06DC202030432E
:100BD000652802D1302038707F1C002C09D13020CC
:100BE00038707F1C07E0641E14A8005D3030387038
:100BF0007F1C002CF7DC07980A994018381A0B90D4
:100C000045E021B22AB291421ADA22B2039900F0E9
:100C1000C7FB24B20A9800190A90311B0D91002FCE
:100C200005DC04A9098F149AC9B2114206D069469D
:100C30000978079A11540B98401C0B900E9726E0E8
:100C4000039900F0ADFB0A9880190A90641B002FED
:100C500005DC04A9098F149AC9B2114205D0411CC0
:100C60000A9169460978079A115420B2874200DA3E
:100C70003C0022B20398811907980A9BC01800F023
:100C80008FFB24B20A9800190A90381B0D9004A813
:100C90003821405C14210140102901D0FFF764FB8A
:100CA00009980A9940180D9940180B9940180E9907
:100CB00040181199884201DBFFF756FB081AFFF72D
:100CC000D5FB04AA3A20105C622808D068280ED010
:100CD0006A2814D06C281DD0712810D01AE03898DA
:100CE00001680868091D389B1960C0B218E038987F
:100CF00001680868091D389B196080B210E03898B7
:100D00000368DB1D072083433898036003CB389CBE
:100D1000236006E0389801680868091D389B19604F
:100D2000002104AB03C3108F1499C0B208425BD0FA
:100D300004A803C8002901D1002855D068460078CE
:100D40002021014378294FD1099824A930220A543F
:100D5000401C421C09926A4612780A5444E004AAD4
:100D60003A20105C622808D068280ED06A2814D077
:100D70006C281DD0712810D01AE0389801680868D6
:100D8000091D389B196040B218E03898016808685E
:100D9000091D389B196000B210E038980368DB1D0C
:100DA000072083433898036003CB389D2B6006E00F
:100DB000389801680868091D389B1960C11704AB91
:100DC00003C3002902DA09982D2109E0108F20427F
:100DD00002D009982B2103E0C00705D509982021EE
:100DE00024AA1154401C099024A80999401807907E
:100DF0006846017804A800F01AF9FFF7B5FA04A8CC
:100E00003A21405C6C280BD001200990389800688A
:100E10000168001D389A106024A80170FFF7A4FA39
:100E2000389800680168001D389A106014910020FD
:100E30001590C043109014AAFFF7C1FA252024A9E9
:100E400008700120099068460078002801D1FFF75A
:100E50008BFA4D700994FFF787FAFEB506000D0076
:100E60001700686B6969401A296A401AA969401A13
:100E7000696A401AE969401AA96A401A0190382043
:100E8000285C400710D4202069460870019800288B
:100E90000ADD019C01236A462900300000F080F938
:100EA000002860D1641EF5D13A006B69290030003A
:100EB00000F076F9002856D13027684607702C6A72
:100EC000002C09DD01236A462900300000F068F992
:100ED000002848D1641EF5D1AB69EA6829003000CA
:100EE00000F05EF900283ED1684607706C6A002C5D
:100EF00009DD01236A462900300000F051F900287D
:100F000031D1641EF5D1EB69E868A969421829005E
:100F1000300000F045F9002825D168460770AC6A1A
:100F2000002C09DD01236A462900300000F038F961
:100F3000002818D1641EF5D13820285C400710D550
:100F4000202069460870019800280ADD019C0123D1
:100F50006A462900300000F023F9002803D1641EFE
:100F6000F5D1002001E00020C04303B0F0BDF0B592
:100F7000A7B004000D0016002F6B002F00D5854F81
:100F800000F0F9FC696B081803A9002200230CC1CA
:100F9000812838D2029206940095002425E0AF42C1
:100FA00034DB00984069401981280BD300984463D2
:100FB00007AA00990698FFF750FF0290002825D451
:100FC000009844610098406905902A0001A907A88B
:100FD000059BC01800F0E4F9059840190099486194
:100FE0003068002812D0361D7F1B002F0EDD03AAAB
:100FF000316801A800F067F9050004D430680028C2
:10100000CDD16D1ECBD50020C0430EE0069B009CC9
:101010000298002804D107AA21001800FFF71DFF3D
:10102000002802D100216161616327B0F0BDF2B5F3
:1010300086B0040025696F2901D1082707E008461A
:1010400020210143782901D00A2700E010273C26FF
:1010500003CC083C04AA03C26A46127E642A03D069
:101060006A46127E692A09D1002907DA04A803C852
:1010700000220023121A8B4104A80CC004A803C844
:1010800000290DD100280BD1206B002808D1082F92
:101090003BD13820205C000737D53B26302033E099
:1010A0000294009504A830C8761E019620002900FD
:1010B0003A00FB1700F064FC3032D0B23A2803DB70
:1010C0006846007E51381218009882552000290089
:1010D0003A00FB1700F054FC04000D0001D1002C75
:1010E00005D00298C068009989198842DCD3029C17
:1010F000009D082F09D13820205C000705D5A85D88
:10110000302802D0761E3020A8553C20801BA061DC
:10111000A919E160216B884206DA081A2062208F43
:101120001D490140218710E000290ED53821615C5E
:1011300014220A40102A08D1616B6269891A226A56
:10114000891A081A002800DD206207B0F0BDF8B542
:101150000026124F04000D00009214E0C00707D5CE
:1011600032003B002000290000F043FB04000D008A
:101170000098401000903000390032003B0000F031
:1011800038FB06000F0000980028E7D12000290056
:10119000F4BD0000FFFFFF7FEFFF000000002440D0
:1011A000F8B50024002B11D007000E0014001D001C
:1011B0002178B068B847B060002809D0F06A401CB8
:1011C000F0620020641C6D1EF2D104002000F2BD0C
:1011D0000020C043F9E7F1B40168421841684808AB
:1011E000131800988068C9071ED5494640181BE0AF
:1011F0001778521C0770401C761EF9D1002C13D0B2
:101200001678521C89080D40032D01D11578521C07
:10121000290271184D424119A41C05D00D78491CB2
:101220000570401C641EF9D19A420FD01178521CEF
:10123000032503260E4002D11678F61C521C0C0919
:101240000F2CD9D114780F34521CD5E700980C30EC
:10125000F2BC70472048704730B45368D41803E09C
:101260005B1C491E641C401C042B06DA002904D0B8
:10127000057825700578002DF2D1536030BC704799
:1012800038B500290ED01D001400FFF7E5FF616896
:1012900020006A6B90470122D243811A02D0491E76
:1012A00002D004E0012000E00020C04332BD002154
:1012B000616032BD80B5DA6B904702BD80B5064BE8
:1012C000FFF7DEFF02BD80B5034BFFF7F3FF02BD62
:1012D0000248704700000000740800203C0800200D
:1012E000C9B202788A4203D0401C002AF9D10020FA
:1012F00070470268531C03601170704780B5002866
:1013000001D100BF07A006490B68002B03D02222A1
:101310000021984701E000F068FB222002BD000098
:10132000981B0020636F6E73747261696E7420681D
:10133000616E646C65723A20626164206D657373DE
:1013400061676500431C0178401C0942FBD1C01A4B
:1013500070472E00C9B2521E05D30378401C8B4241
:10136000F9D1401E704700207047430070B4103A16
:1013700003D378C9103A78C0FBD2530701D318C9F8
:1013800018C001D508C908C0D20704D30B88038050
:10139000891C801C002A01D50B78037070BC704733
:1013A0008B0701D18307E1D0124205D00B78491C8D
:1013B0000370401C521EF9D1704730B401246405FB
:1013C0004D00EC420BD85D00EC4208D80C001C43E9
:1013D00064000443144304D2994200D1904230BCCB
:1013E0007047FCD08B42FAD18242F8E730B4012436
:1013F00064054D00EC420BD85D00EC4208D80C00AF
:101400001C4364000443144304D28B4200D1824243
:1014100030BC7047FCD09942FAD19042F8E7FEE721
:10142000F4464A1805D200F00FF801D5801740089D
:10143000604700F009F80121C907884200D9080077
:10144000404260474A1812D2400DC90208430121A8
:10145000C9070843520D40210901521A521C06D4F3
:1014600052421F3201D4D0407047C017704700204D
:101470007047FEE7010042221201D21E004207D04F
:1014800002D4521E0018FCD5C10A40051205891865
:10149000704700000100EED54042F446FFF7EBFF35
:1014A0000122D207114360478B4200D1824205D905
:1014B0008446100062468C4619006346DF184C18BB
:1014C000640D7F0D3AD0661C760537D0E61B352EAD
:1014D00034DCDB022B43DB0A0C0DC9022943C912A1
:1014E000202E0DDB1700203E06D01F00F741F340F1
:1014F0005F400026012A7741C01871410DD217E0E4
:101500001700F741F2405740F3415A40B340F340CF
:101510005A400026801859410AD3A21C52050FD008
:10152000C207012F724117004008CB071843490832
:10153000641C24054208AF4170416141F0BC704712
:10154000641C21050020F9E76B4010E06B40ABE71D
:10155000F742F3D1E943F1E72442EFD10020002123
:10156000ECE7F0B40125ED070F005F40EED40C006E
:10157000871A9C4105D2C01BA141D2196341694021
:101580006B40AE0ADF184C18F442E1D2640D7F0DB7
:10159000E2D0E61B362ED1DCDB022B43DB0AA4466D
:1015A0000C0DC9022943C90A012E28DC04D1D60733
:1015B0005208DF073A435B08EF0A764290419941AF
:1015C00014D039423BD1B61940414941761C3942C9
:1015D00004D1761C001849413942FAD0B943674614
:1015E000B74208D9A41B24052143A7E70042EAD14A
:1015F0003642E8D1A2E7E40AE10700209EE7202E68
:101600000BDD203E1F00F340F7415F40012A00221E
:1016100057417E42984191410BE01700F741F2405B
:101620005740F3415A40B340F3405A407E42904104
:1016300099410A0303D2641EB6194041494100276B
:10164000641E24054208AE4178416141F0BC7047F8
:10165000F446002804D4494200F013F840426047A1
:101660004042002905D45FD000F00BF840424942C7
:101670006047494200F005F84942604703460B4382
:10168000E6D40022030A8B420BD203098B4219D203
:1016900043088B422ED2411A00D2014652411046D5
:1016A0007047FF2209023FD012068B4205D3121267
:1016B00009028B4201D31212090203098B4219D38A
:1016C00000E0090AC3098B4201D3CB01C01A524181
:1016D00083098B4201D38B01C01A524143098B42CB
:1016E00001D34B01C01A524103098B4201D30B01B4
:1016F000C01A5241C3088B4201D3CB00C01A5241D9
:1017000083088B4201D38B00C01A524143088B429D
:1017100001D34B00C01A5241884200D3401A5241B3
:10172000CFD201461046704708B500F063F908BDF6
:10173000F0B40E005E400125ED072E40B446AE0A1F
:10174000DF184C18F4423BD2F74241D2640D43D02B
:101750007F0D38D0E41BC902DB0229432B43CF0A9B
:10176000DB0A0600B61A9F4104D2641EB6197F41F7
:10177000B6185F416812800D24180018844222DADE
:10178000E80C0021B6197F41B61A9F4102D2B61863
:101790005F413F1C40414941F4D3241C21DD240515
:1017A000B6197F41B61A9F4105D33743C607374361
:1017B0000026012F7041614166463143F0BC7047FD
:1017C000FCD1F74205D20020C14349054908F3E79F
:1017D00004D00020C143F1E77F0DFAD0002061461C
:1017E000ECE72442FAD1401C61410F03F6D30020FC
:1017F000E2E7F0B50E005E400125ED072E40B4464D
:10180000AE0ADF184C18F44208D2F7420ED2640D2B
:1018100001D07F0D12D100206146F0BD05D1F74205
:1018200001D87F0D05D10020C143F0BDFBD1640D6F
:10183000F9D00020C143490549088FE0E419C902E5
:10184000DB0229432B43DB0A460DC00231438E469F
:1018500030B487B295B27D432E0CADB2140C7C43EC
:10186000A419260C240425439CB27C43A419190C0A
:101870007943270CC919A4B20F043C43090C000C8E
:1018800097B247432E0CBE193543ADB2170C4743F0
:10189000360CBF19A6B2BF193E043543240C3E0CCA
:1018A00036199FB24743BF19BCB23E0C89191F0CB1
:1018B00047437F183E043443390C704680B297B2D8
:1018C00047432E0CBE193543ADB2170C4743360CB7
:1018D000BF19A6B2BF193E043543240C3E0C36197D
:1018E0009FB24743BF19BCB23E0C89191F0C474336
:1018F0007F183E043443390C77463F0C90B278434E
:101900002E0C80190604ADB22E43050CA0B22D1882
:10191000120C7A435019020C80B2240CA4189AB20B
:101920007A43121914042043120C89181B0C7B43B0
:10193000C91830BCEF0A394203D1B61940414941B8
:10194000641E6F12BF0DE41B0BDBFF19BC4211DAE2
:10195000240500274208AE41784161416646314383
:10196000F0BD641C05D1401C6141CF0201D3490880
:10197000F4E750E75DE780B5FFF76CFC006C02BD53
:10198000124224D0994228D970B500251B4202D0BA
:101990000C00002109E0002401264918644194420A
:1019A00000D3A41A7641F8D33100012601E0764134
:1019B00009D2001864416D41A41A9D41F7D2A418C0
:1019C0005D41B619F5D3300022002B0070BD1B42DB
:1019D000D8D108B500F010F808BD01D19042D3D29B
:1019E00002000B0000210020704780B5012000F0AC
:1019F00005F801BD7047FEE77047FEE780B500BF00
:101A000000BF024A11001820ABBEFBE7260002000F
:101A100010B50400002C01D1012014E03D20205C11
:101A2000002805D100203C216054200000F014FE65
:101A300002203D216054211D206800F0BDFB0120E3
:101A40003D216054002010BD00B5010001200A684E
:101A5000D26802430B68DA600A6892685207520F34
:101A6000062A04D00B681B6818430B681860002016
:101A700000BD10B50400002C01D1012014E03D2070
:101A8000205C002805D100203C216054200000F09B
:101A9000A9FE02203D216054211D206800F08CFB2E
:101AA00001203D216054002010BDF8B504000F0056
:101AB00016001D003D20205C022801D10220BFE05D
:101AC0003D20205C01280AD1002E05D1280080B2DB
:101AD000002801D00120B3E002203D2160543800ED
:101AE000002806D0042822D008283ED00C285AD03E
:101AF00077E09348616A88629248616AC862924856
:101B0000616A08632B009BB2206802003432310006
:101B1000606A00F095FE002801D0012090E0206866
:101B2000C0688021890001432068C16059E0844871
:101B3000A16A88628348A16AC8628348A16A08636F
:101B40002B009BB22068020038323100A06A00F0FE
:101B500077FE002801D0012072E02068C068802153
:101B6000C90001432068C1603BE07548E16A8862B2
:101B70007448E16AC8627448E16A08632B009BB24A
:101B8000206802003C323100E06A00F059FE002873
:101B900001D0012054E02068C06880210901014380
:101BA0002068C1601DE06648216B88626548216B32
:101BB000C8626548216B08632B009BB22068020055
:101BC00040323100206B00F03BFE002801D00120A4
:101BD00036E02068C0688021490101432068C16067
:101BE000FFE701223900206800F064FC20685749B3
:101BF00088420BD020685649884207D02068554952
:101C0000884203D020680F49884201D1012000E0BA
:101C10000020C0B2002806D02068406C8021090254
:101C2000014320684164206880684107490F062904
:101C300005D020680068012202432068026000206D
:101C4000F2BD00000048014038B504000D00280036
:101C5000002806D004280ED0082816D00C281ED044
:101C600027E02068C0683C4901402068C160606A84
:101C700000F02CFE1DE02068C06838490140206853
:101C8000C160A06A00F022FE13E02068C0683449F9
:101C900001402068C160E06A00F018FE09E0206899
:101CA000C068304901402068C160206B00F00EFE22
:101CB000FFE700222900206800F0FCFB2068234990
:101CC00088420BD020682249884207D020682149E9
:101CD000884203D020682449884201D1012000E0D5
:101CE0000020C0B2002811D02068006A1F490140BE
:101CF00000290BD12068006A10490140002905D154
:101D00002068406C1A490140206841642068006ADC
:101D10001649014000290BD12068006A074901409B
:101D2000002905D1206800680121884321680860E6
:101D300001203D216054002032BD00004404000019
:101D400031210008752100081D210008002C0140E8
:101D50000040014000440140FFFDFFFFFFFBFFFF8B
:101D6000FFF7FFFFFFEFFFFF0048014011110000E8
:101D7000FF7FFFFF70B50400022620680069304035
:101D800000281CD02068C0683040002817D00220EE
:101D9000C04321680861012020772068806980079E
:101DA000800F002803D0200000F062FE05E0200034
:101DB00000F05FFE200000F0DAFE0020207704250E
:101DC00020680069284000281CD02068C06828408E
:101DD000002817D00420C0432168086126772068B6
:101DE0008069C02189000140002903D0200000F053
:101DF0003FFE05E0200000F03CFE200000F0B7FEB2
:101E000000202077082620680069304000281BD079
:101E10002068C0683040002816D00820C0432168E0
:101E2000086125772068C0698007800F002803D0EB
:101E3000200000F01DFE05E0200000F01AFE20004A
:101E400000F095FE002020771020216809690140EC
:101E500000291CD02168C9680840002817D010202C
:101E6000C0432168086126772068C069C0218900C5
:101E70000140002903D0200000F0FAFD05E0200019
:101E800000F0F7FD200000F072FE00202077012016
:101E900021680969014000290BD02168C968084000
:101EA000002806D00120C04321680861200000F00E
:101EB00056FE802021680969014000290BD0216865
:101EC000C9680840002806D08020C0432168086106
:101ED000200000F062FE40202168096901400029CD
:101EE0000BD02168C9680840002806D04020C043B4
:101EF00021680861200000F051FE20202168096956
:101F0000014000290BD02168C9680840002806D08C
:101F10002020C04321680861200000F040FE70BD11
:101F2000F8B504000E0017003C20205C012801D108
:101F3000022075E001253C20255402203D216054FB
:101F40003800002806D004281BD0082832D00C28DE
:101F500047D05FE03100206800F072F920688069A6
:101F60000821014320688161206880690421884339
:101F70002168886120688069316901432068816136
:101F800048E03100206800F099F9206880698021DC
:101F9000090101432068816120688069214901406D
:101FA00020688161206880693169090201432068E5
:101FB00081612FE03100206800F0BAF92068C06923
:101FC000082101432068C1612068C0690421884359
:101FD0002168C8612068C069316901432068C16116
:101FE00018E03100206800F0E1F92068C069802124
:101FF000090101432068C1612068C06909490140A5
:102000002068C1612068C069316909020143206804
:10201000C161FFE73D20255400203C216054002091
:10202000F2BD0000FFFBFFFFF8B504000D003C20EF
:10203000205C012801D102206DE001263C202654BD
:1020400002203D2160542068806877218843324F08
:102050000740206887602868002851D010284FD09A
:1020600020284DD030284BD040283FD0502829D0B0
:10207000602831D0702809D080214901884204D0DD
:102080008021890188420FD03FE03EE0EB686A681A
:10209000A968206800F0F8F920688068772101437A
:1020A0000F002068876030E0EB686A68A9682068E4
:1020B00000F0EAF9206880688021C90101432068A6
:1020C000816022E0EA686968206800F0A7F9502181
:1020D000206800F0D1F918E0EA686968206800F02B
:1020E000B1F96021206800F0C7F90EE0EA6869687C
:1020F000206800F093F94021206800F0BDF904E069
:102100002968206800F0B8F9FFE73D202654002038
:102110003C2160540020F2BDFF00FFFF38B50400F1
:10212000656A01203D216854280000F039FD31BD69
:1021300038B50400656A01203D216854696A8C4203
:1021400001D1287710E0A86A844202D102202877C2
:102150000AE0E86A844202D10420287704E0286B70
:10216000844201D108202877280000F000FD0020DB
:10217000287731BD38B50400656A01203D216854D7
:10218000696A8C4201D1287710E0A86A844202D1A2
:10219000022028770AE0E86A844202D104202877E6
:1021A00004E0286B844201D108202877280000F041
:1021B000F8FC0020287731BD10B50368784A9042BA
:1021C00006D08024E405A04202D0764CA04204D17F
:1021D0007024A3431C004B682343904212D08024F8
:1021E000E405A0420ED06F4CA0420BD06E4CA04232
:1021F00008D0844CA04205D0834CA04202D0834C2E
:10220000A04203D1824C1C40CB6823438024A343CB
:102210004C691C4304608B68C3620B688362904204
:1022200008D0784A904205D0774A904202D0774A47
:10223000904201D10A6902630122426110BD00008F
:1022400070B5026A01239A430262056A4368846991
:1022500070229443032294430A6822430224A54334
:102260008C682C434E4DA84208D0664EB04205D033
:10227000654EB04202D0654EB04206D10826B44346
:102280002600CC6834430426B443A84208D05D4DF0
:10229000A84205D05C4DA84202D05C4DA84207D1AF
:1022A0005C4D1D40714B2B404D691D438B692B4389
:1022B000436082614D684563046270BD70B5026A17
:1022C00010239A430262036A42688469524D254092
:1022D0004F4E2E400C68240234432025AB438D68BA
:1022E0002D011D432E4B984207D18026B5432E0069
:1022F000CD682D0135434026B543984208D0414B67
:10230000984205D0404B984202D0404B984209D1A8
:102310004B4B1340564A1A404B699B0013438A6942
:1023200092001A43426084614B688363056270BD0A
:10233000F0B5026A374B13400362046A4268C5690C
:1023400070239D4303239D430B682B43474D25403A
:102350008C6824022C43124DA84206D1444E2640DC
:10236000CC6827023743364C3C40A84208D0254D64
:10237000A84205D0244DA84202D0244DA84209D13C
:102380003C4D1540464A2A404D692D0115438A6946
:1023900012012A434260C3614D68C5630462F0BD07
:1023A000002C0140000400400020004070B5026A8B
:1023B000304B13400362036A4268C469164D2540DE
:1023C000134E2E400C6824023443354D1D408B685B
:1023D0001B032B43334DA84208D00A4DA84205D019
:1023E000094DA84202D0094DA84204D12E4D1540F6
:1023F0004A6992012A434260C4614D6805640362E0
:1024000070BD000000400140004401400048014010
:10241000FFFCFFFFFFFEFFFFFF8FFFFF30B4036AEB
:10242000046A0125AC4304628469F025AC431501BC
:1024300025430A24A3430B438561036230BC7047E4
:10244000FFFBFFFF30B4036A1024A34303628469D7
:10245000036A164D254014032C43A025AB430D0100
:102460001D438461056230BC70470000FFFDFFFF23
:10247000FFF7FFFFFFEFFFFF826870239A430723F8
:102480000B4313438360704770B48468084D254044
:1024900016000E431C0234432C43846070BC70470A
:1024A000FFDFFFFF002C0140FFBFFFFFFF0FFFFF1B
:1024B000FF00FFFF70B41F2301240D001D40AC403E
:1024C000056AA5430562056A0E00334016009E406A
:1024D0002E43066270BC704730B58DB010220021CB
:1024E00009A800F05FFB08220021684600F05AFBB3
:1024F0001C22002102A800F055FBAB4CAB48206029
:1025000000256560A5603B20E0602561A561200095
:10251000FFF77EFA002801D000F03EFB802040014A
:10252000099009A92000FFF77FFD002801D000F0E5
:1025300033FB2000FFF79DFA002801D000F02CFBB0
:10254000009501956946200000F036FB002801D077
:1025500000F022FB60200290039504950695082266
:1025600002A92000FFF7DCFC002801D000F014FBDA
:10257000200000F0D6F80DB030BD3EB50822002195
:10258000684600F00FFB8A4C8A4820608A486060E9
:102590000025A5606420E060A5612000FFF738FAFF
:1025A000002801D000F0F8FA009501956946200056
:1025B00000F002FB002801D000F0EEFA37BD30B584
:1025C0008FB01C22002108A800F0ECFA2022002184
:1025D000684600F0E7FA794D7948286000246C607D
:1025E000AC603B20E8602C616C61AC612800FFF7B7
:1025F0000FFA002801D000F0CFFA2800FFF739FACF
:10260000002801D000F0C8FA602008901720099037
:102610000A940B940C940D940E94002208A928009F
:10262000FFF77EFC002801D000F0B6FA0094019478
:1026300002940394049480208001059007946946D5
:10264000280000F0F0FA002801D000F0A5FA2800D8
:1026500000F067F80FB030BD38B50400206853496A
:10266000884209D10221574802680A430260006883
:1026700001400091009853E020684E49884211D1F2
:102680001021504802680A4302600068014000912E
:10269000009800220021112000F081FB112000F0A1
:1026A00088FB3DE020684649884239D1802080027D
:1026B00045490A6802430A6009680840009000988A
:1026C000424D43482860102068600020A8608021A7
:1026D000E9608021490029616861A861C02080010A
:1026E000E861280000F080F8002801D000F054FADA
:1026F00038480168384A0A4002600168E022D20086
:102700000A43026065622800243004602562046088
:1027100000220121152000F042FB152000F049FBAA
:1027200031BD10B586B0040014220021684600F0C7
:1027300039FA20681D49884217D1802109032748AA
:1027400002680A43026000680140059105988020F4
:10275000400000900220019000200290039004901D
:1027600069461F4800F048FB1BE020681449884276
:1027700017D180218902194802680A430260006863
:102780000140059105984020009002200190002012
:10279000029003900520049069469020C00500F047
:1027A0002BFB06B010BD00005C1A002000040040A6
:1027B0009C1A00200010004087130000DC1A002043
:1027C000004401401C10024018100240D81900209B
:1027D00030000240A8000240FFF0FFFF141002404A
:1027E000000800487047FEE7F8B5040000252F00F8
:1027F000002C01D1012020E002202121605420681A
:1028000001680E4808406168A2680A43E168114304
:1028100022690A4361691143A2690A43E6691643C2
:10282000064320680660200000F0FCF8A563012044
:1028300021216054202025540020F2BD0FC0FFFF4D
:10284000F7B504001F00002006002021615C01296B
:1028500001D1022039E0012529002022A1542121A3
:10286000615C01292BD102212122A154A06320689F
:10287000006801218843216808603B00029A0199A1
:10288000200000F0BAF8E06A002806D0206800684E
:102890000E210143206801600BE0206800680A21D6
:1028A0000143206801602068006804218843216892
:1028B00008602068006805432068056003E0202167
:1028C0006054022006003000C0B2FEBD38B50400DE
:1028D000002005002121615C022904D00420A063AE
:1028E000012005001BE0216809680E22914322683F
:1028F0001160216809680122914322681160012159
:10290000226C0B009340E26B53602122A1542021E2
:102910006054606B002802D02000616B884728005B
:10292000C0B232BD70B50400E06B0568206806686F
:102930000420216C02008A402A40002A16D0064258
:1029400014D021680968890605D421680968042221
:10295000914322681160216C8840E16B4860E06A15
:10296000002849D02000E16A884745E00220216C18
:1029700002008A402A40002A1CD006421AD0216850
:102980000968890608D4216809680A2291432268E7
:10299000116001212122A154216C8840E16B486023
:1029A000002020216054A06A002825D02000A16AC0
:1029B000884721E00820216C02008A402A40002A32
:1029C0001AD03040002817D0206800680E218843B4
:1029D000216808600120216C02008A40E16B4A6096
:1029E000A06321216054002020216054206B002826
:1029F00002D02000216B884770BD30B50124056CE2
:102A0000AC40C56B6C60046863604468102C04D1F2
:102A10000468A2600468E16003E00468A1600468DF
:102A2000E26030BD10B5040020680C4988420AD22B
:102A300020680B4940181421FEF723FE8000206413
:102A40000848E06309E02068074940181421FEF7B0
:102A500018FE800020640548E06310BD08040240B1
:102A6000F8FFFDBF00000240F8FBFDBF000402407C
:102A70007047704780B500F097FB00F03DF800F01C
:102A8000A3FB00F05BFCFFF727FD00F06DFC00F0FE
:102A9000F5FC00F057FDFFF792FD00F0AFFD00F0F0
:102AA00021FEFFF76AFD00F02BFE00F018FF00F09A
:102AB00071FF01F0F1F8324801688022D2030A4325
:102AC000026030480168822292020A4302602E4866
:102AD000016810220A430260802080012B490860AF
:102AE000642001F00BF900F00FFE00F0FCFE00F096
:102AF00055FF01F0D5F8F6E730B591B0342200214A
:102B000004A800F04FF810220021684600F04AF8AF
:102B10001120049001200590099010200A900224B1
:102B20000D94802040020E908020C0020F9000255E
:102B3000109504A801F0F8F8002801D000F02CF856
:102B4000072000900194029503950121684601F049
:102B50009BFB002801D000F01FF811B030BD10B56C
:102B600004000B48844201D100F098FE10BD10B55E
:102B700004000848844201D100F094FE10BD00001A
:102B8000181002400C58014008580140180800482D
:102B90009C1A0020DC1A002070477047704770476D
:102BA0007047704710B504000800110002002000B3
:102BB00001F090FC200010BD70B502003C20105CBC
:102BC000012801D102202DE001203C23D054022312
:102BD0003D24135513685D6813689B687024A543F2
:102BE0000C682C4315686C601568274EB5420CD0F4
:102BF00015688026F605B54207D01568234EB54204
:102C000003D01568224EB54206D18025AB431D0086
:102C10004B682B431568AB603D25505500203C2583
:102C20005055002070BD30B50200002003003C2448
:102C3000145D012C01D1022023E001243C255455D0
:102C4000FF24A343CC681C43124D25408B682B43C3
:102C5000114C1C404B682343104C1C400B68234311
:102C60000F4C1C400B692343064C1C404B6923430B
:102C70000C4C1C40CB692343146863643C241055FE
:102C8000002030BDFFDFFFFF002C014000040040AA
:102C900000400140FFFCFFFFFFFBFFFFFFF7FFFFCE
:102CA000FFEFFFFFFFBFFFFF00B5010049B20029A2
:102CB00005D40121C206D20E9140484A116000BDE0
:102CC00000B5010049B2002909D40121C206D20E83
:102CD0009140434A1160BFF34F8FBFF36F8F00BD28
:102CE000F0B5020052B2002A1CD403223D4B04006E
:102CF00064B2A40804256C431C59FF251600064045
:102D000008277E43B540AC438D01EDB20240082652
:102D1000724395402543020052B292080424624354
:102D20009D5022E00F24304A032305006DB2254058
:102D3000083DAD0804267543060076B23440083CD1
:102D4000A408042674431659FF27BC461C000440FF
:102D500008277C436746A740BE438C01E4B203408A
:102D600008277B439C4034435451F0BD10B5040008
:102D7000601E80214904884201D301200EE0601EBC
:102D80001A49086003210020C043FFF7A9FF002073
:102D900017490860072017490860002010BD70B56A
:102DA00005000C0016002100280040B2FFF798FF34
:102DB00070BD10B50400200040B2FFF775FF10BDD4
:102DC00010B50400200040B2FFF77AFF10BD10B527
:102DD00004002000FFF7CAFF10BD000000E100E082
:102DE00080E100E000E400E01CED00E014E000E021
:102DF00018E000E010E000E0FCB5020000240868E4
:102E0000E040002800D1F6E0012508682E00A64029
:102E1000064001960198002800D1EAE0486802289F
:102E200002D0486812281FD1E00804267043101809
:102E3000076A072000970F26B4462700074004269C
:102E400077436646BE40009FB743BC460E692700E5
:102E5000384004277843864067463E433300E00805
:102E6000042670431018036217680326BC46270027
:102E7000022047433000B8406746874300974F68B9
:102E80003740BC46200002277843674687400098B9
:102E9000074317604868012808D04868022805D011
:102EA0004868112802D04868122820D193689C46AF
:102EB000230002204343300098406346834300933D
:102EC000C868844623000220434360469840009B24
:102ED000184300900098906053682800A0408343F6
:102EE000486800092840A040184307005760D3688D
:102EF0009C462300022043433000984063468343AE
:102F000000938B689C46200002235843634683400D
:102F100000980343D3604868C0006AD588480768B2
:102F20002F4307600068284000900098944884462A
:102F3000A708042047436046C05900900F27BC46AD
:102F400027003000384004277843674687400098C0
:102F5000B8439027FF05BA4201D1002512E0894B02
:102F60009A420FD0884B9A4201D102250AE0874B42
:102F70009A4201D1350005E0854B9A4201D10425E2
:102F800000E0052523001E4004235E43B5400543B1
:102F90007B48A30804267343C5507E4B1868019EE6
:102FA000B0434E68F60302D5050001982843186027
:102FB000794D2B68019EB3434E68B60302D51800C5
:102FC000019B03432B60754D2868019EB0434E68FA
:102FD000F60202D50300019818432860704D2B6853
:102FE000019EB3434E68B60202D51800019B03430D
:102FF0002B60641C03E7F3BDF2B582B00100002230
:103000000298D040002800D198E0012302981C00CB
:103010009440044000940098002800D18CE0584867
:10302000940804256C43005903240F25160027003B
:103030003740042677432E00BE400640019690207C
:10304000C005814201D1002614E04E48814201D1E1
:103050001E000FE04C48814201D102260AE04B4895
:10306000814201D1260005E04948814201D1042670
:1030700000E0052601988446170020003840042708
:10308000784386406046B04228D142480668009F97
:10309000BE43066040480668009FBE4306603F4846
:1030A0000668009FBE4306603D480668009FBE4319
:1030B0000660160020003040042670432E00864033
:1030C00001962F4E9008042778433758019887437C
:1030D000B446900804267043664637500E681700C1
:1030E000022047432000B84086430E60D0080426E3
:1030F00070430E18D008042778430818006AAC46BD
:1031000015006F077F0F04256F436546BD40A84338
:1031100030628D681600022046432000B04085438F
:103120008D604868934098434860C8681300022542
:103130006B439C40A043C860521C61E7F7BD000090
:103140001810024000B51300DBB2002B03D00B00B7
:103150009BB2836102E00B009BB2836200BD10B59D
:10316000040010480168220092B21140002906D0E4
:10317000210089B20160200080B200F07EFB10BD0A
:10318000080001400004004800080048000C004806
:1031900000100048000401400404014008040140FC
:1031A0000C0401401404014080B506480168102257
:1031B0000A430260002001F0B5F901F0DBF90020BC
:1031C00002BD000000200240F8B586B014220021A4
:1031D0006846FFF7E7FC80210903504802680A436C
:1031E0000260026811400591059901688022D203AE
:1031F0000A43026001688022D203114005910599BB
:103200008021890202680A43026002681140059128
:1032100005998021C90202680A43026000680140E2
:10322000059105980122802189013D48FFF78AFF19
:1032300000223C493A48FFF785FF00223A49902096
:10324000C005FFF77FFF0122E0213848FFF77AFF32
:1032500037480090012601960024029403946946A1
:103260002F48FFF7C9FD0325009511200190029416
:10327000039469469020C005FFF7BEFD2D480090DD
:1032800001960294039469469020C005FFF7B4FDAF
:1032900080200090022001900294039504946946D6
:1032A0009020C005FFF7A8FD20200090224F019735
:1032B0000220029069461A48FFF79EFD009501978B
:1032C000029469461948FFF797FD8020400100905D
:1032D0000194029469469020C005FFF78DFDE0201F
:1032E000009001960294039469461048FFF784FD0C
:1032F0008020C00301F058F9002200210520FFF7CB
:103300004EFD0520FFF755FD002200210720FFF7A5
:1033100046FD0720FFF74DFD07B0F0BD1410024039
:1033200000080048CC4200000B0F000000040048D9
:10333000CC620000080F00000000311080B50120B1
:1033400008490A6802430A6009680840009000982A
:10335000002200210A20FFF722FD0A20FFF729FDA5
:1033600001BD00BF141002401FB50C2200216846A9
:10337000FFF718FC3C4C3D48206000206060A060D6
:10338000E0600121216104226261020022760200D4
:1033900062760200A2760200E276FF22C232E26189
:1033A00020622422A054A162200001F011F900281B
:1033B00001D0FFF7F1FB0220009080204001019036
:1033C0008020400502906946200001F0E7F90028BE
:1033D00001D0FFF7E1FB0E2000906946200001F0CC
:1033E000DDF9002801D0FFF7D7FB1FBD70B586B00F
:1033F00006001422002101A8FFF7D4FB30681B4906
:1034000088422FD18020800019490A6802430A604F
:1034100009680840009000988021890215480268D8
:103420000A4302600268114000910099802109035B
:1034300002680A430260006801400091009804207D
:103440000190032402940025039501A99020C00552
:10345000FFF7D2FC102001900294039501A90648C1
:10346000FFF7CAFC06B070BD1C1A00200024014002
:103470001810024014100240000800481CB5082231
:1034800000216846FFF78EFB2A4C2B482060200065
:1034900001F04CFA002801D0FFF77EFB00200090DD
:1034A000019000226946200001F056FA002801D060
:1034B000FFF772FB10226946200001F04DFA002848
:1034C00001D0FFF769FB13BD10B586B004001422CC
:1034D000002101A8FFF766FB20681749884226D122
:1034E0008020800515490A6802430A60096808407F
:1034F000009000988020800211490A6802430A6007
:103500000968084000900098302001900320029044
:103510000020039001A99020C005FFF76DFC002258
:1035200000211120FFF73BFC1120FFF742FC06B001
:1035300010BD00003C1B0020007400401C10024025
:103540001410024080B528482849016082214900B2
:10355000416000218160A022D200C260016141610E
:103560008022D20282612822C261016241628162AC
:103570000722C26201630821416301F04FFA00286B
:1035800001D0FFF709FB01BD10B586B0040014227D
:10359000002101A8FFF706FB20681449884221D1C9
:1035A0008020C00112490A6802430A600968084085
:1035B000009000988020C0020E490A6802430A6009
:1035C0000968084000900098F02000020190022055
:1035D00002900020039003210491059001A9064860
:1035E000FFF70AFC06B010BD741900200038004037
:1035F0001C100240141002400004004880B53448FA
:103600003449016096218901416000218160C160D7
:1036100001610C224261816180221202C261016259
:103620003021416280214901816380218901C16388
:1036300001F060FA002801D0FFF7AEFA01BD10B525
:1036400086B004001422002101A8FFF7ABFA20681D
:103650002049884226D120201F490A6802430A6077
:103660000968084000900098802000031B490A6800
:1036700002430A6009680840009000980320019006
:1036800002210291002203920490059101A914489D
:10369000FFF7B2FB002200211D20FFF780FB1D2059
:1036A000FFF787FB06B010BD10B50400206809497C
:1036B00088420BD108480168202291430160032110
:1036C0000748FFF799FC1D20FFF77AFB10BD0000AB
:1036D000F418002000140140181002401410024099
:1036E0000008004880B50349034801F066FE03491D
:1036F000087001BD8C1B002030000020A71B00209B
:103700000020544908807047F8B5012069460870C8
:10371000504F3888002802D029280DD095E080200D
:1037200040004D49086001F053FE4C4908600020FC
:10373000694608702920388068460078002806D03D
:1037400001F046FE454C2168401A152801D201209F
:103750007FE001F03DFE206080208000404908604D
:10376000404A00A9891C13780B7052784A70FF22D6
:103770003D4B186000231C00E4B2082C2BDA5400E7
:103780003A4A1268150B2A00D207D20F2243324C54
:1037900020600D78ED0703D58025ED00256003E05E
:1037A0008025ED00324E35604D78ED0703D580253C
:1037B0002D01256003E0802424012D4D2C602C4C2C
:1037C00020600C78E4B264080C704C78E4B26408B1
:1037D0004C705B1CCFE7D2B2D443264D2878210031
:1037E000C9B28842A3D02E7866403000204068706D
:1037F00028783040A870F00702D5280000F04CF877
:10380000B00702D5280001F0E9FD700702D52800B5
:1038100001F0E5FD300702D5280001F0E1FDF006DA
:1038200002D5280001F0DDFDB00602D5280001F028
:10383000D9FD700602D5280001F0D5FD300602D56D
:10384000280001F0D1FD2C7071E7002001003880C4
:103850000320F2BD9C1B002018000048881B00209C
:10386000280800489E1B0020180800481000004847
:1038700028000048841B0020704710B50400200079
:1038800080B2012801D101F0B0FD200080B20228F1
:1038900001D101F0ABFD10BD7047FEE701203549B5
:1038A0000870704780B500213348FEF7CDF901BD9F
:1038B00030B5020000231C00E4B2182C0EDA2F4CA5
:1038C00024781D00EDB24C55D40204D52C4C24783C
:1038D0001D00EDB24C5552005B1CECE730BD0020E2
:1038E00028490880704770B50126264C208800289A
:1038F00002D04D2812D038E02348FEF7A5F81F4D1E
:103900001D480068C06A0321FDF7BBFE28702878B7
:10391000022148431A4908704D202080154801783B
:10392000002901D1002024E000252900017000F0C9
:10393000AFF92800C0B255280FDA14482900C9B2DF
:1039400018225143411812482A00D2B204235A4384
:103950008058FFF7ADFF6D1CEBE7FF23DB000B4A40
:1039600000210548FEF7A1F8D6E7002001002080DD
:10397000032070BDA91B0020DC1A0020AA1B002018
:10398000AB1B0020A41B00209C1A00204400002038
:10399000A01600200020594908807047FEB5012478
:1039A000260056480088002809D0332814D039282A
:1039B0002BD03C2840D0762800D191E097E05048A9
:1039C00002210160046001F003FD4E4908600020FF
:1039D00006003320494908803000C0B2002806D0D4
:1039E00001F0F6FC474D2968401A652801D20120F4
:1039F00082E0454802210160046001F0E9FC286092
:103A00000020060039203D4908803000C0B200285F
:103A100007D001F0DDFC3B490968401A3B49884268
:103A200001D2012068E001F0E3FC00280AD0002068
:103A300006003C20314908803000C0B2002801D186
:103A4000012059E0002400943149324801F045FD3D
:103A5000002802D000980A28F6D100941420029081
:103A600001942D4D2F00019A0299380000F032FD8B
:103A700020006870294868602C742948A8602800D4
:103A800001F04CFD002802D000980A28F7D1254CFF
:103A90002549200001F0FEFD2000FDF753FC010048
:103AA000224D200001F066FD28702878002801D002
:103AB00001F0FDFC1E49200001F0ECFD2000FDF7A7
:103AC00041FC0100200001F055FD287028780028F5
:103AD00001D001F0ECFC00200600762007490880A8
:103AE0003000C0B2002801D1012005E0F3E700203A
:103AF0000100024A10800320FEBD0000A21B00202E
:103B000028000048941B002018000048E90300002A
:103B10008C5B0008C85B0008641B0020485B000841
:103B2000FECB00001C1B0020E45A0008A81B00204C
:103B3000985B000870B5002001006B4A0B00DBB2F7
:103B4000D4889BB2A34220D293680C00E4B204252F
:103B50006C431B19FF240D00EDB20A267543641B4C
:103B60005C7093680C00E4B204256C431B199870D8
:103B70000B00DBB20A246343A03392680C00E4B26A
:103B800004256C431355491CD7E770BD70B5564AE0
:103B9000127B012A02D0022A0ED01CE00A888B88F0
:103BA0009A4203D28A88521E8A8004E002220A7353
:103BB0008A88521C8A800EE08A88CB88D2184B886B
:103BC0009A4203DA8A88521C8A8004E001220A732E
:103BD0008A88521E8A8042688B8804245C431219AA
:103BE00000231C00E4B2CD88A4B2AC4209D28C6898
:103BF0001D00EDB204267543645914605B1C121D50
:103C0000EFE770BD30B54168002213001C00057855
:103C1000A4B2ADB2AC4204D284680C605B1C091D36
:103C2000F4E7324B1C78641E1C701C78002C2ED1DB
:103C30000A241C70037B002B05D0022B16D00CD35A
:103C4000032B1DD023E0827A13005B1C8372D2B257
:103C5000052A01DB0122027319E0827A521E827268
:103C6000827A002A01D10222027310E0027A130044
:103C70005B1C0372D2B2052A01DB0322027306E049
:103C8000037A5B1E0372037A002B00D1027330BDEE
:103C900001201749087070470020164908807047B6
:103CA00070B50126134C2088002802D08A2805D040
:103CB00015E00D48006980478A2020800C48017873
:103CC000002901D100200EE0002101700A4D2800DA
:103CD000FFF798FF04492800FFF758FFECE70020A2
:103CE00001002080032070BD10000020BC080020CF
:103CF000A61B0020A01B00200000002070B50400BF
:103D000001F066FB050026000020C043864202D079
:103D100004480078361801F05BFB401BB042FAD330
:103D200070BD00BFBD080020F8B584B00400002CB1
:103D300001D101209EE22078C00768D50C20B84947
:103D40000A680240042A0BD00A681040082810D1E3
:103D50000868C0214902014080204002814208D108
:103D6000B0480068800352D5606800284FD1012018
:103D700080E26068012806D1AA48016880225202C8
:103D80000A43026024E06068002809D1A548016860
:103D9000A54A0A4002600168A44A0A40026017E08E
:103DA000606805280BD19F4801688022D2020A432F
:103DB00002600168802252020A43026008E09948CA
:103DC0000168994A0A4002600168984A0A40026004
:103DD000606800280DD001F0FBFA050091480068EA
:103DE000800314D401F0F4FA401B6528F6D30320B5
:103DF00040E201F0EDFA05008A480068800306D52C
:103E000001F0E6FA401B6528F6D3032032E20226D1
:103E100020683040002854D00C2081490A680240B4
:103E2000002A0BD00A681040082819D10868C02160
:103E30004902014080200002814211D17948016885
:103E40003140002904D0E168012901D0012011E2AC
:103E50000168F82291432269D2000A43026030E0EF
:103E6000E06800281AD06F4F38680121014339609B
:103E700001F0AEFA050038683040002806D101F0A4
:103E8000A7FA401B0328F6D30320F3E13868F82192
:103E900088432169C9000143396012E0614F3868E5
:103EA00001218843386001F093FA050038683040FA
:103EB000002806D001F08CFA401B0328F6D303201B
:103EC000D8E12078000728D5E069002812D0A94F52
:103ED000386801210143396001F07AFA0500386839
:103EE0003040002819D101F073FA401B0328F6D3A3
:103EF0000320BFE19F4F386801218843386001F0FB
:103F000067FA050038683040002806D001F060FAF2
:103F1000401B0328F6D30320ACE104272068384077
:103F2000002800D18DE000206946087080204005FF
:103F3000BD490968014000290AD1BB490A6802430A
:103F40000A600968084003900398012069460870D8
:103F5000B6480068C00514D4B44800688021490000
:103F60000143B248016001F033FA0500AF48006830
:103F7000C00506D401F02CFA401B6528F6D30320B7
:103F800078E1A068012805D1BB48016801220A43F5
:103F9000026021E0A068002809D1B7480168012229
:103FA00091430160016804229143016014E0A0681C
:103FB000052808D1B0480168394301600168012231
:103FC0000A43026008E0AC480168012291430160A5
:103FD0000168042291430160A06800280FD001F01D
:103FE000F7F90500A44800683040002820D101F00E
:103FF000EFF9401BA1498842F4D303203AE101F0D4
:10400000E7F905009C4800683040002810D001F016
:10401000DFF9401B99498842F4D303202AE100BF0D
:104020000410024000100240FFFFFEFFFFFFFBFFF5
:1040300068460078012804D17B480168904A0A400C
:1040400002602078C00650D56069012822D18D48D1
:10405000006807438B4807608A48006801210143D4
:104060008848016001F0B4F90500864800683040D6
:10407000002806D101F0ACF9401B0328F5D303203A
:10408000F8E080480168F8229143A269D2000A430F
:1040900002602AE00421C943606988420BD1794853
:1040A0000268114001600168F8229143A269D200C0
:1040B0000A43026019E073480068074371480760CB
:1040C00070480068012188436E49086001F080F95A
:1040D00005006C4800683040002806D001F078F9EF
:1040E000401B0328F5D30320C4E02078800643D585
:1040F0000C20B4490A6802400C2A09D00A68104012
:1041000008280ED1C020400209680140814208D130
:104110005C480068C0032FD5206A01282CD00120FC
:10412000A8E0206A002813D0564F8026760238680F
:104130003043386001F04CF9050038683040002801
:104140001AD101F045F9401B0328F6D3032091E072
:104150004C4E30689C490140316001F039F905004E
:104160003068C00308D501F033F9401B0328F7D3AA
:1041700003207FE024100240606A002879D0914833
:1041800000680C210140082952D0606A022838D109
:104190008E4F38688E490140396001F019F900905E
:1041A0008026B60438683040002807D001F010F9A6
:1041B0000099401A0328F3D303205BE08548016887
:1041C0000F229143226B0A4302607E480168824AB3
:1041D0000A40E16A1143A26A0A43026038688021FA
:1041E00049040143396001F0F3F8050038683040B4
:1041F00000283ED101F0ECF8401B0328F6D3032041
:1042000038E0724E306872490140316001F0E0F8E8
:104210000500306880012CD501F0DAF8401B032836
:10422000F7D3032026E000BF1C10024000700040BE
:10423000606A012801D101201CE0624800680190F9
:104240006448006802900198C02149020140A06AB8
:1042500081420CD102980007000F216B884206D1E1
:104260000198F02189030140E06A814201D00120D8
:1042700000E0002005B0F0BD2010024089130000CE
:10428000FFFFFFEF34100240F3B581B00400002CB3
:1042900001D1012094E00125804E30682840029928
:1042A00088420CD230680121884302990143316071
:1042B000306828400299884201D0012080E0022025
:1042C0002168014000290FD02178490705D53D49D3
:1042D0000A68E023DB0013430B603A490A68F023C5
:1042E0009A43A36813430B602168294000293BD0FF
:1042F0006168012905D13548006880031AD401207E
:104300005EE06168022905D130480068800111D45F
:10431000012055E06168032905D161480068C003A8
:1043200008D401204CE0294909680840002801D13F
:10433000012045E0234F3868032188436168014329
:10434000396001F045F8009038680C210140606840
:104350008000814208D001F03BF80099401A514991
:104360008842F1D303202BE002983168294088422B
:104370000CD23068012188430299014331603068D2
:1043800005400298854201D0012019E020784007BD
:1043900006D50C480168444A0A40E16811430160AF
:1043A00000F01CF84149074A126812091207120F5F
:1043B000895CC8403E490860002000F0B3F8002046
:1043C000FEBD000004100240FFFFFEFF001002408F
:1043D000FFFFFFFE2C100240FF7FC2FFF0B589B047
:1043E00005A835491022FCF7C1FF01A83349102266
:1043F000FCF7BCFF002420000094250026002D4976
:104400000F680C213940042904D0082904D00C2954
:1044100030D031E02A4830E00F2005A9BA0C024024
:10442000895C0E0001A9274A12681040085C0090C0
:10443000C02040020100394080225202914206D140
:104440001F480099FDF71DF97043050010E00100B9
:104450003940814206D11C480099FDF712F970439A
:10446000050005E019480099FDF70BF970430500B8
:10447000280002E0144800E0144809B0F0BD0C48E0
:104480000068704780B5FFF7FAFF1149094A1268C2
:10449000120A5207520F895CC84002BD0020024038
:1044A0003410024089130000FFF8FFFF385B00085A
:1044B0002C00002004100240185B0008285B000854
:1044C0000024F4002C100240006CDC0200127A0080
:1044D000C05B00081206130A1A43130C1A4300BFEC
:1044E000094205D0830705D00270401C491EF9D14E
:1044F000704700001300103906D330B414001500C3
:1045000010393CC0FCD230BC490700D30CC000D5E8
:1045100004C0890002D30280801C002900D50270EB
:104520007047FEE710B50400FA2080000E490978B4
:10453000FDF7A7F801000D480068FDF7A2F8FEF7A7
:1045400046FC002801D001200CE0042C09D20022F6
:1045500021000020C043FEF722FC05480460002033
:1045600000E0012010BD00BFBD0800202C0000208D
:104570002800002081B0012009490A6802430A602E
:1045800009680840009000988020400505490A68A5
:1045900002430A60096808400090009801B0704723
:1045A000181002401C10024081B00121064A136815
:1045B0000B431360126811400091009903490A6887
:1045C00002430A6001B07047181002400000014029
:1045D000F8B5040000252F002E00002C01D1012089
:1045E000D4E0A06B002806D1E56328003421605494
:1045F0002000FEF7FBFE1020A16B0140002900D037
:10460000BDE03900C9B2002900D0B8E00422216819
:1046100089681140002900D0B1E0A36B5C491940C2
:1046200002230B43A363216889688907890F012945
:104630000AD1012123681B680B40002B03D123689A
:10464000DB681B0400D500E0290000290FD1216898
:10465000C96818239943A3680B432168CB6021687C
:1046600009698B009B0861681943236819612168F7
:10467000CB68484919402368D960A16A012902D052
:104680008021490100E029002369022B00D02A0083
:10469000B446237E9E03637EDB033343A67E76030C
:1046A0001E433143E3680B431A432421615C4E00EF
:1046B000164361460E43E17E01290FD1A17E0029F8
:1046C00004D13100802676020E4307E0A16B202240
:1046D0000A43A263E16B01220A43E263E169FF221C
:1046E000C232914204D03200E169266A0E43164379
:1046F0002168C96831432268D160E16A802252058D
:10470000914214D0E16A012911D0E16A02290ED048
:10471000E16A03290BD0E16A042908D0E16A05297E
:1047200005D0E16A062902D0E16A07290ED1216885
:1047300049690722914322685161216849692C2205
:10474000A25C5207520F0A4321684A612168C96876
:10475000114A0A40B24207D1E563A06B02218843A7
:1047600001210143A1630FE0A16B022291430843A1
:10477000A0630120E16B0143E163070004E0A16B4A
:104780000843A063012007003800C0B2F2BD00005A
:10479000FFFEFFFF1902FEFFE7FF3F83F8B50400AD
:1047A0000D0000273E00009780214905E06A8842FD
:1047B00013D0E06A012810D0E06A02280DD0E06A28
:1047C00003280AD0E06A042807D0E06A052804D04C
:1047D000E06A062801D0E06A07283420205C01281E
:1047E00001D1022098E0012210003423E054206817
:1047F0008068400700D586E06868484B98425FD0E3
:104800002068806A2B689A40024320688262E06ACE
:10481000884228D0E06A012825D0E06A022822D008
:10482000E06A03281FD0E06A04281CD0E06A05284B
:1048300019D0E06A062816D0E06A072813D00720AE
:10484000A96822685269024091420CD021684969E6
:10485000072291432268516121684969AA68104082
:104860000843216848612868102805D02868112865
:1048700002D0286812284BD12868102802D1802045
:10488000000407E02868112802D18020C00301E05D
:104890008020400422490A681043086028681028D4
:1048A00036D1204800682049FCF7EBFE0A21484336
:1048B0000090009800282BD00098401E0090F8E748
:1048C0002068806A29688A40904321688862286845
:1048D000102805D02868112802D02868122817D17E
:1048E0002868102802D18021090407E028681128CF
:1048F00002D18021C90301E08021490408480268EF
:104900008A43026004E0A06B20210143A1631600EA
:10491000342027543000C0B2F2BD00000110000066
:10492000082701402C00002040420F0010B5040071
:10493000002C01D101200EE02079002804D10020B4
:1049400060712000FEF7C0FD022020710020206170
:1049500001202071002010BDFCB504000020019052
:1049600000906379012B01D1022013E001266671CA
:104970000223237123681F68254B93409F430B68D4
:104980004D681D432B0093403B4327683B602671D5
:1049900060710020F6BD10B5040080208001216800
:1049A00009680140002915D02168496B01400029A0
:1049B00010D004212171216901220A43226121685A
:1049C00048632068006813490140206801602000A6
:1049D00000F080FE802080052168096801400029E0
:1049E00015D02168496B0140002910D004212171A4
:1049F000216902220A432261216848632068006815
:104A00000549014020680160200000F064FE10BDEF
:104A1000FE0F0000FFEFFFFFFFFFFFEF70B5040088
:104A2000002C01D1012060E0606A00280025A56209
:104A30005D20205C002805D128005C216054200006
:104A4000FEF7A2FD022001005D22A1542168096841
:104A500040229143226811602449E2688A4201D3CE
:104A60002A0001E080225201E368F0263601B342B9
:104A700005D0E368E026F600B34200D0A562236BC0
:104A8000002B06D1E3688B4201D3206301E00120B3
:104A900020636068A168014320690843616901439C
:104AA000A06980239B0018400843E1690143206A04
:104AB0000843A16A014320680160A069000C042139
:104AC0000840616A0143606B0843E1680143114398
:104AD000206841602068C069054901402068C161C3
:104AE000256601205D216054002070BD0107000093
:104AF000FFF7FFFF10B50400002C01D1012035E0C5
:104B0000A0690028FFD1606F002805D10020702126
:104B100060542000FEF793FD242060672068006841
:104B20000121884321680860200000F039F901283C
:104B300001D101201AE0606A002802D0200000F0B4
:104B40008DFA206840680A49014020684160206869
:104B500080682A21884321688860206800680121D4
:104B6000014320680160200000F0EEFA10BD000053
:104B7000FFB7FFFF38B50400002C01D1012017E07A
:104B8000242060672068006801218843216808604C
:104B90000025206805602068456020688560200049
:104BA000FEF782FDE5676567A56770202554002044
:104BB00032BDFEB582B00400606F20286DD102982E
:104BC000002803D068468089002801D1012065E0D3
:104BD00080256D01A068A84207D12069002804D172
:104BE0000298C00701D5012058E07020205C012800
:104BF00001D1022052E00120702160540027E767B4
:104C00002120606700F0E4FB019068468089502114
:104C100060526846808952216052A068A84205D13E
:104C20002069002802D13D00029E01E0029D3E0065
:104C30005220205A00281ED004980090019B002288
:104C40008021200000F0B6FA002801D0032025E0E2
:104C5000002D06D13088C005C00D21680885B61C1E
:104C600003E02878216808856D1C5220205A401ED8
:104C700052216052DCE704980090019B0022402101
:104C8000200000F097FA002801D0032006E0202041
:104C9000606770202754002000E0022005B0F0BDBE
:104CA000F0B50300986F202872D1002903D01000BE
:104CB00080B2002801D101206BE0802040019C6877
:104CC000844207D11C69002C04D10C00E40701D5F3
:104CD00001205EE070241C5D012C01D1022058E00F
:104CE0000124250070269D55596558255A535A258B
:104CF0005A5300251D669E6886420AD11E69002E01
:104D000003D1244E5C27DE5324E0FF265C27DE53CC
:104D100020E09E68002E0AD11E69002E03D1FF26D6
:104D20005C27DE5316E07F265C27DE5312E09E6888
:104D300080277F05BE420AD11E69002E03D17F263F
:104D40005C27DE5306E03F265C27DE5302E02E00A0
:104D50005C27DE53DD6722269E671E68B6683443F3
:104D60001E68B4609C68844205D11869002802D18D
:104D70000948186601E00948186670201D54186833
:104D8000006890246400044318680460002000E078
:104D90000220F0BDFF0100000153000891520008FD
:104DA000FEB5050000263700300069460870A86887
:104DB000296901436A690A43E86910432968096857
:104DC0009F4A0A40024329680A60296849689D4A47
:104DD0000A40E96811432A685160A9692A6A0A43AE
:104DE000029229688968984A0A40029911432A6800
:104DF00091602968954A914215D1954800688007CD
:104E0000800F002805D0022809D006D3032802D03D
:104E100007E034006AE0022468E0042466E0082425
:104E200064E0102462E028688A4988421DD18848DD
:104E30000068C0218902014000290CD08020400276
:104E400081420CD08020800281420AD0C0208002A2
:104E5000814202D007E0340048E0022446E0042406
:104E600044E0082442E0102440E028687A4988425F
:104E70001DD177480068C0210903014000290CD0EA
:104E80008020C00281420CD08020000381420AD0E1
:104E9000C0200003814202D007E0340026E0022453
:104EA00024E0042422E0082420E010241EE02868E6
:104EB000A249884201D1340018E02868A0498842FC
:104EC00001D1340012E028689E49884201D13400A3
:104ED0000CE02868B449884201D1340006E0286813
:104EE000B249884201D1340000E010248020000241
:104EF000E969814258D12000C0B2002806D00228BA
:104F000013D004281BD0082828D032E0FFF7BAFAC3
:104F1000019001980221484369684908401869686E
:104F2000FCF7AFFB80B2070026E068684008A049A4
:104F300040186968FCF7A5FB80B207001CE0FFF78A
:104F40004DFA0190019802214843696849084018C8
:104F50006968FCF796FB80B207000DE068684008BE
:104F60008021490240186968FCF78BFB80B207007A
:104F700002E0012069460870102F11D38020400202
:104F800087420DD23900B548084079084907490FD2
:104F9000014368464180684640882968C8604AE005
:104FA00001206946087046E02100C9B2002906D0F8
:104FB000022911D0042919D0082924D02CE0FFF7A8
:104FC00061FA019001986968490840186968FCF71E
:104FD00058FB80B2070022E068684008A0494018EA
:104FE0006968FCF74EFB80B2070018E0FFF7F6F99E
:104FF000019001986968490840186968FCF741FB0D
:1050000080B207000BE06968490808186968FCF776
:1050100038FB80B2070002E0012069460870102FBB
:1050200006D380204002874202D22868C76002E08F
:105030000120694608702E666E6668460078FEBDDF
:10504000F369FFEFFFCFFFFFFFF4FFFF00380140E0
:1050500030100240004400400048004000B52421C8
:10506000415CC90707D5016849687E4A0A40816AE0
:105070001143026851602421415C890707D501680A
:105080004968794A0A40C16A114302685160242183
:10509000415C490707D501684968744A0A40016BB9
:1050A0001143026851602421415C090707D501685A
:1050B00049686F4A0A40416B1143026851602421DC
:1050C000415CC90607D5016889686A4A0A40816B54
:1050D0001143026891602421415C890607D501686B
:1050E0008968654A0A40C16B1143026891602421B6
:1050F000415C490614D501684968604A0A40016C60
:10510000114302685160016C80225203914207D121
:10511000016849685A4A0A40416C1143026851606B
:105120002421415C090607D501684968554A0A40AF
:10513000816C11430268516000BD0000004C0040CA
:1051400000500040001401407CB505000024EC67CD
:1051500000F03EF906002868006800070CD54A48B0
:1051600000903300002280218903280000F022F8FB
:10517000002801D0032016E02868006840070CD5FD
:1051800041480090330000228021C903280000F02C
:1051900011F8002801D0032005E020206867A867E7
:1051A00070202C54002076BD00180140001C0140E6
:1051B0000024F400F4B504000D001F00069E2068D2
:1051C000C0692840A84201D1012000E000206946C2
:1051D0000978884240D10020C0438642EFD000F0D9
:1051E000F7F8C01B864201D3002E13D12068006857
:1051F00026490140206801602068806801218843B9
:105200002168886020206067A067002070216054BA
:10521000032022E0206800684007D0D580200001EC
:105220002168C96901400029C9D021680862206845
:1052300000681649014020680160206880680121EB
:1052400088432168886020206067A067E0670020AD
:1052500070216054032000E00020F2BDF0FF000048
:1052600000127A00FFFFFDFFFFFFFEFFFFFFFBFFC5
:10527000FF7FFFFFFFEFFFFFFFDFFFFFFFFFEFFFFE
:10528000FFFF9FFFFFFFF7FFFFFFFF015FFEFFFF35
:1052900070B505005C202E5AA86F222827D12868F7
:1052A000808C0400200031000140686D0170686D41
:1052B000401C68655A20285A401E5A2168525A20BC
:1052C000285A002819D1286800680C49014028682C
:1052D000016028688068012188432968886020204F
:1052E000A86700202866280000F04EFA05E028682C
:1052F0008069082101432868816170BDDFFEFFFFDE
:10530000F8B505005C202E5AA86F222827D12868FE
:10531000808C0400686D0700300020403880686D84
:10532000801C68655A20285A401E5A2168525A200B
:10533000285A002819D1286800680C4901402868BB
:1053400001602868806801218843296888602020DE
:10535000A86700202866280000F016FA05E02868F3
:1053600080690821014328688161F1BDDFFEFFFFEC
:10537000F4B50200012000242300144D6E7A022EA1
:1053800019DA6E7AAC556E7A04277E43AE197260D4
:105390006E4636786F7AEF193E726E7A37007F1C50
:1053A0006F7233001D0030350D703A254D702F257A
:1053B0008D70CC702000C0B2F2BD38B505000C0075
:1053C000002221002800FFF7D3FF32BD781B002008
:1053D00001480068704700BF901B0020704770476D
:1053E0007047704770477047704770477047FEE7D7
:1053F000F8B584B000F070F9002801D5012054E020
:1054000080267600029600250195574C2700019AC8
:1054100002993800FFF75EF80A230D225349200055
:1054200000F038F92000FBF78DFF0100504F3A00E3
:10543000200000F0E1F8694608706846007800280E
:1054400001D0012031E06420FEF758FC039602955C
:105450000194029A03990198FFF73CF801980A23F6
:105460000D226349200000F015F92000FBF76AFFC8
:105470003A000100200000F0BFF86946087001966C
:1054800026002A0001993000FFF724F80A230D2294
:105490007649200000F0FEF82000FBF753FF3A00A9
:1054A0000100200000F0A8F8C0B205B0F0BD10B5B2
:1054B0002D4C0A230D224F49200000F0EBF820006C
:1054C000FBF740FF01002A4A200000F095F8040095
:1054D00000F017F92000C0B210BDF3B583B08026EC
:1054E00076000025204C27002A0031003800FEF706
:1054F000F1FF0A2001900D200090049B039A5C4963
:10550000200000F0C7F82000FBF71CFF184A01003C
:10551000200000F071F8C0B205B0F0BDFEB5050086
:10552000287C002801D001201DE08020400002904E
:1055300000260D4C2700320002993800FEF7CAFF02
:105540000A2001900D200090AB686A684A4920004B
:1055500000F0A0F82000FBF7F5FE0100044A20004F
:1055600000F04AF8C0B2FEBDF4170020685B0008E6
:10557000B05B0008F1B584B00F000020040004996E
:10558000002931D080214900029101903B4D2E002D
:10559000019A02993000FEF79DFF0A2000900D232A
:1055A0003A003749280000F075F82800FBF7CAFEDA
:1055B00034A20100280000F01FF806003000C0B23D
:1055C000002801D0012011E0FFF702FF0500FFF7DE
:1055D000FFFE401BFA2149008842F8D32A4A3900CD
:1055E000049800F009F804002000C0B205B0F0BD36
:1055F000F85A0008745B0008F7B584B00020040076
:10560000224E029601901B4D2F00019A02993800FC
:10561000FEF760FF0599049800F078F8002801D59E
:1056200001201FE00121684600F081F8002806D023
:10563000684600782855641CB44202D100E010E0AE
:105640000FE00699280000F0F7F8002801D00020AC
:1056500008E00F49280000F0EFF80028E2D0012010
:1056600000E0012007B0F0BD00000000085B00086A
:10567000B85A0008C4100020445A0008F41700204B
:10568000D05A00083E000000805B0008DC050000E6
:10569000B85B00080CB418B583B004000A0006A873
:1056A000029001940020009002AB01A908487844C0
:1056B0001E30FAF703FD0021019A1170002801D471
:1056C0000198001B04B0019910BC03B0084700BF4B
:1056D00023BCFFFF7047704710B553488021090174
:1056E000026891600021514B514A99528022120167
:1056F0009C182180012221885918FFF7D1FA002037
:1057000010BD80B54848FFF735FA01BD38B5050032
:105710000C00484B220092B229004348FFF749FA97
:10572000002802D00020C04300E0002032BDF8B5C0
:1057300005000C0000262000441E002822D0FFF7A0
:1057400047FE070039483A4941180A8880231B015F
:10575000C35A9A420FD00A88805C28700888401C7F
:1057600008806D1C761C088880221201904201DBA3
:1057700000200880DFE7FFF72BFEC01B2D49884281
:10578000E0D3D8E73000F2BD10B5040027488021EF
:10579000090141180A88521C0A800A8880231B01CB
:1057A0009A4201DB00220A80012209884118200068
:1057B000FFF776FA10BD10B51B480168C969890664
:1057C00011D51A4A80210901511803689B8C0C8855
:1057D00013550A88521C0A800A8880231B019A42AA
:1057E00001DB00220A8004210268D2690A40002AF3
:1057F00001D00268116202210268D2690A40002ABF
:1058000001D00268116208210268D2690A40002AA8
:1058100001D00268116201210268D2690A40002A9F
:1058200001D00068016210BDF4180020C0080020FB
:10583000020800008813000070B50D78002D11D00B
:105840000C0004E0491C0E78964207D0401C290049
:10585000FBF746FD002805D0010023005B1C1A78E9
:10586000002AEFD170BDFEE7686A6C747A4C0000C4
:105870007072696E74665F733A20256E2064697376
:10588000616C6C6F776564007072696E74663A2043
:1058900062616420256E20617267756D656E7400AB
:1058A0007072696E74665F733A206261642025735A
:1058B00020617267756D656E740000000000000065
:1058C0007072696E74665F733A2062616420256C41
:1058D0007320617267756D656E74000000000000D2
:1058E0006E616E004E414E00696E6600494E460084
:1058F0003000FEE7704700B5FEE77047704780B59F
:1059000000F036F8FDF7B8FF01BD80B50120FDF7C6
:1059100026FC0220FDF723FC01BD80B52020FDF709
:105920001EFC01BD80B50D48FCF7FCFF01BD80B534
:105930000B48FCF71FFA0B48FFF72DF801BD80B5A7
:105940000948FCF717FA01BD80B50848006800282F
:1059500002D0FFF730FFFFE701BD0000D81900209B
:105960009C1A00203C1B0020DC1A00201C14014063
:1059700003480168034A127889180160704700BF24
:10598000901B0020BD08002070B40123002413E008
:105990000168001D194202D04D466D1E49190C6068
:1059A000091D121F042AFAD20D00960701D50C809A
:1059B000AD1C1A4000D02C700268001D002AE7D1EF
:1059C00070BC7047010005480122027000787047E2
:1059D000010002480122027000787047BE080020D2
:1059E00010B40400002010BC704710B40400002064
:1059F00010BC704703000120C0B2704710B50749C2
:105A000079441831064C7C44163404E0081D0A68B9
:105A1000891888470100A142F8D110BD0800000094
:105A20002400000065FFFFFFEC120000C00800200A
:105A300000000000A3B7FFFFB60100000A0100004C
:105A40000000002041542B43495053544152543DCF
:105A500022544350222C222573222C256C75256359
:105A60002563000000F00DF8002801D0FFF7C6FF05
:105A700000BF00BF002000BF00BFFCF7FBFF00F02D
:105A800002F80120704780B500F002F801BDFEE782
:105A900007463846FBF7B2FFFBE7FF2902D9002093
:105AA000C04370470170012070470078401E80415C
:105AB000C043C00F7047FEE741542B43574A415043
:105AC0003D222573222C22257322256325630000A5
:105AD00041542B43495053454E443D256C75256335
