:020000040800F2
:10000000301700201D3800080D3700080F37000892
:1000100000000000000000000000000000000000E0
:10002000000000000000000000000000133700087E
:100030000000000000000000153700081737000816
:100040009F0F0008EB29000857360008D336000838
:10005000CB370008D7370008593800085B3800084C
:100060005D3800085F3800081F3700086138000855
:1000700063380008653800086738000869380008E8
:100080006B380008213700086D3800086F38000809
:1000900071380008393700087338000875380008CF
:1000A00077380008793800087B3800087D38000868
:1000B0007F380008813800088338000810B5040034
:1000C000002C01D1012014E03D20205C002805D146
:1000D00000203C216054200000F0CAFE02203D2197
:1000E0006054211D206800F05BFA01203D2160541E
:1000F000002010BD00B5010001200A68D26802434B
:100100000B68DA600A6892685207520F062A04D018
:100110000B681B6818430B681860002000BD10B501
:100120000400002C01D1012014E03D20205C0028B7
:1001300005D100203C216054200000F02BFF02205C
:100140003D216054211D206800F02AFA01203D2144
:100150006054002010BD10B50400002C01D1012016
:1001600014E03D20205C002805D100203C21605493
:10017000200000F010FF02203D216054211D206866
:1001800000F00EFA01203D216054002010BD70B532
:100190000400022620680069304000281CD0206836
:1001A000C0683040002817D00220C0432168086191
:1001B00001202077206880698007800F002803D005
:1001C000200000F0E9FE05E0200000F0E6FE20003F
:1001D00000F0E4FE00202077042520680069284014
:1001E00000281CD02068C0682840002817D00420B0
:1001F000C04321680861267720688069C021890092
:100200000140002903D0200000F0C6FE05E02000D8
:1002100000F0C3FE200000F0C1FE00202077082679
:1002200020680069304000281BD02068C06830403A
:10023000002816D00820C04321680861257720686F
:10024000C0698007800F002803D0200000F0A4FEC2
:1002500005E0200000F0A1FE200000F09FFE00203D
:100260002077102021680969014000291CD02168ED
:10027000C9680840002817D01020C04321680861D1
:1002800026772068C069C02189000140002903D079
:10029000200000F081FE05E0200000F07EFE20003E
:1002A00000F07CFE002020770120216809690140D0
:1002B00000290BD02168C9680840002806D0012019
:1002C000C04321680861200000F0D6FE802021682C
:1002D0000969014000290BD02168C968084000283D
:1002E00006D08020C04321680861200000F0DFFEB6
:1002F000402021680969014000290BD02168C968A4
:100300000840002806D04020C04321680861200032
:1003100000F0CEFE202021680969014000290BD0A1
:100320002168C9680840002806D02020C043216801
:100330000861200000F0BDFE70BDF8B504000E009D
:1003400017003C20205C012801D1022029E0012572
:100350003C20255402203D2160543800002806D05E
:10036000042809D008280CD00C280FD013E0310045
:10037000206800F059F90EE03100206800F092F991
:1003800009E03100206800F0C7F904E0310020687E
:1003900000F000FAFFE73D20255400203C21605486
:1003A0000020F2BDF8B504000E0017003C20205CD0
:1003B000012801D1022075E001253C2025540220AE
:1003C0003D2160543800002806D004281BD008289E
:1003D00032D00C2847D05FE03100206800F024F9CB
:1003E0002068806908210143206881612068806954
:1003F000042188432168886120688069316901434C
:100400002068816148E03100206800F04BF92068E5
:100410008069802109010143206881612068806929
:1004200021490140206881612068806931690902A1
:100430000143206881612FE03100206800F06CF9F1
:100440002068C069082101432068C1612068C06933
:10045000042188432168C8612068C069316901436B
:100460002068C16118E03100206800F093F920682D
:10047000C0698021090101432068C1612068C06909
:10048000094901402068C1612068C06931690902D9
:1004900001432068C161FFE73D20255400203C2135
:1004A00060540020F2BD0000FFFBFFFFF8B5040020
:1004B0000D003C20205C012801D102206DE00126C6
:1004C0003C20265402203D2160542068806877211A
:1004D0008843324F0740206887602868002851D041
:1004E00010284FD020284DD030284BD040283FD066
:1004F000502829D0602831D0702809D080214901A6
:10050000884204D08021890188420FD03FE03EE03C
:10051000EB686A68A968206800F0AAF9206880681A
:10052000772101430F002068876030E0EB686A683C
:10053000A968206800F09CF9206880688021C901C2
:1005400001432068816022E0EA686968206800F061
:1005500059F95021206800F083F918E0EA686968C9
:10056000206800F063F96021206800F079F90EE05E
:10057000EA686968206800F045F94021206800F0C9
:100580006FF904E02968206800F06AF9FFE73D2070
:10059000265400203C2160540020F2BDFF00FFFFE4
:1005A00010B50368784A904206D08024E405A04242
:1005B00002D0764CA04204D17024A3431C004B68A7
:1005C0002343904212D08024E405A0420ED06F4C09
:1005D000A0420BD06E4CA04208D0844CA04205D063
:1005E000834CA04202D0834CA04203D1824C1C40D9
:1005F000CB6823438024A3434C691C4304608B686D
:10060000C3620B688362904208D0784A904205D05A
:10061000774A904202D0774A904201D10A69026338
:100620000122426110BD000070B5026A01239A43A5
:100630000262056A436884697022944303229443EA
:100640000A6822430224A5438C682C434E4DA842DD
:1006500008D0664EB04205D0654EB04202D0654E1D
:10066000B04206D10826B4432600CC6834430426A1
:10067000B443A84208D05D4DA84205D05C4DA842C5
:1006800002D05C4DA84207D15C4D1D40714B2B4000
:100690004D691D438B692B43436082614D684563FF
:1006A000046270BD70B5026A10239A430262036A45
:1006B00042688469524D25404F4E2E400C682402FA
:1006C00034432025AB438D682D011D432E4B9842AA
:1006D00007D18026B5432E00CD682D013543402635
:1006E000B543984208D0414B984205D0404B9842C0
:1006F00002D0404B984209D14B4B1340564A1A4006
:100700004B699B0013438A6992001A4342608461DB
:100710004B688363056270BDF0B5026A374B1340C6
:100720000362046A4268C56970239D4303239D43A5
:100730000B682B43474D25408C6824022C43124DF7
:10074000A84206D1444E2640CC6827023743364C97
:100750003C40A84208D0254DA84205D0244DA842CF
:1007600002D0244DA84209D13C4D1540464A2A40AA
:100770004D692D0115438A6912012A434260C36104
:100780004D68C5630462F0BD002C014000040040C8
:100790000020004070B5026A304B13400362036AC8
:1007A0004268C469164D2540134E2E400C68240241
:1007B0003443354D1D408B681B032B43334DA842FA
:1007C00008D00A4DA84205D0094DA84202D0094DD3
:1007D000A84204D12E4D15404A6992012A43426035
:1007E000C4614D680564036270BD000000400140B3
:1007F0000044014000480140FFFCFFFFFFFEFFFFF7
:10080000FF8FFFFF30B4036A046A0125AC43046222
:100810008469F025AC43150125430A24A3430B4307
:100820008561036230BC7047FFFBFFFF30B4036A91
:100830001024A34303628469036A164D2540140300
:100840002C43A025AB430D011D438461056230BCE0
:1008500070470000FFFDFFFFFFF7FFFFFFEFFFFF07
:10086000826870239A4307230B43134383607047C6
:1008700070B48468084D254016000E431C023443B2
:100880002C43846070BC7047FFDFFFFF002C0140E9
:10089000FFBFFFFFFF0FFFFFFF00FFFF00B50100DD
:1008A00049B2002905D40121C206D20E91409C4ACA
:1008B000116000BDF0B5020052B2002A1CD4032220
:1008C000984B040064B2A40804256C431C59FF250E
:1008D0001600064008277E43B540AC438D01EDB2BB
:1008E00002400826724395402543020052B2920806
:1008F000042462439D5022E00F24CB4A03230500C9
:100900006DB22540083DAD0804267543060076B259
:100910003440083CA408042674431659FF27BC46FB
:100920001C00044008277C436746A740BE438C0157
:10093000E4B2034008277B439C4034435451F0BD4C
:1009400001688022914301607047F0B5012901D10F
:10095000002218E0042901D1012214E0102901D15C
:10096000022210E0402901D103220CE08022520033
:10097000914201D1042206E08022D200914201D1AD
:10098000052200E0062203001833A84C1500EDB242
:10099000645D1B191D680424CE4E1700FFB2F65D7E
:1009A000B440A5431D60F0BDF0B5012901D100227E
:1009B00018E0042901D1012214E0102901D10222FA
:1009C00010E0402901D103220CE080225200914224
:1009D00001D1042206E08022D200914201D10522F9
:1009E00000E0062203001833904C1500EDB2645D60
:1009F0001B191D680824B74E1700FFB2F65DB440FE
:100A00002C431C60F0BD81B0C4490A6802430A60EF
:100A1000096801400091009901B0704781B0C04958
:100A20000A6802430A60096801400091009901B018
:100A3000704730B4BB4C63185B1E1B78C318641836
:100A4000641E247804192468B74D254015431D60A1
:100A500030BC704730B4B34C63185B1E1B78C318AE
:100A60006418641E2478041924682025AC431443B8
:100A70001C6030BC704730B4AA4C63185B1E1B78F6
:100A8000C3186418641E2478041924684025AC43F4
:100A900014431C6030BC704730B4A24C63185B1E1A
:100AA0001B78C3186418641E2478041924688025F0
:100AB000AC4314431C6030BC704730B4994C63188D
:100AC0005B1E1B78C3186418641E247804192468FC
:100AD000964D254015431D6030BC704730B4914C95
:100AE00063185B1E1B78C3186418641E24780419ED
:100AF0002468DB4D254015431D6030BC704730B481
:100B0000884C63185B1E1B78C3186418641E247815
:100B100004192468D34D254015431D6030BC70472F
:100B200000E100E000E400E070B4A823C3580F2403
:100B30000D006D1E04267543AC40A3430C00641EDB
:100B400004256C431500A5401D43A823C55070BC67
:100B5000704730B595B01022002111A800F0AAFA14
:100B600008220021684600F0A5FA1C2200210AA8EC
:100B700000F0A0FA2022002102A800F09BFABA4D52
:100B8000BA482860D54868600024AC60E8602C61F1
:100B90006C61AC612800FFF791FA002801D000F0E9
:100BA00085FA80204001119011A92800FFF77EFCF2
:100BB000002801D000F07AFA2800FFF7B0FA0028E8
:100BC00001D000F073FA009401946946280000F007
:100BD0007BFA002801D000F069FA0A940B940C9477
:100BE0000D940E940F94109404220AA92800FFF784
:100BF000A4FB002801D000F059FA02940394049455
:100C000005940694802080010790099402A9280089
:100C100000F091FA002801D000F048FA280000F016
:100C20005FF915B030BD00001CED00E04038000851
:100C300030B58DB01022002109A800F03BFA08223F
:100C40000021684600F036FA1C22002102A800F0BC
:100C500031FAC44CC448206000256560A5603B2083
:100C6000E0602561A5612000FFF728FA002801D087
:100C700000F01CFA80204001099009A92000FFF72C
:100C800015FC002801D000F011FA2000FFF763FAEC
:100C9000002801D000F00AFA00950195694620006D
:100CA00000F012FA002801D000F000FA6020029053
:100CB000039504950695082202A92000FFF772FB10
:100CC000002801D000F0F2F9200000F009F90DB081
:100CD00030BD0000483800083EB5082200216846B3
:100CE00000F0E8F9A14CA2482060A248606000250D
:100CF000A5606420E060A5612000FFF7DFF900280F
:100D000001D000F0D3F9009501956946200000F06C
:100D1000DBF9002801D000F0C9F937BD14100240FA
:100D20001810024050380008EFBFFFFFFFFCFFFF24
:100D300078B599B01422002114A800F0BBF9202244
:100D400000210CA800F0B6F91822002106A800F036
:100D5000B1F918220021684600F0ACF98026B602ED
:100D60003000FFF75BFE844C072203212000FFF7D1
:100D7000DBFE002203212000FFF75BFEC022920170
:100D800003212000FFF7BBFE202203212000FFF7F4
:100D900061FE002203212000FFF76DFE8022032167
:100DA0002000FFF779FE002203212000FFF785FED7
:100DB000002203212000FFF791FE01211520FFF7FB
:100DC00079FD1520FFF76AFD002414A82100018099
:100DD000159445211691179421000174674D14A9AB
:100DE000280000F0FCF92800FFF7AAFD01212800E7
:100DF000FFF7DAFD60200C900D940E9403200F9005
:100E000010941194129413940CAA0121280000F05C
:100E100033FA01212800FFF798FD069407940894FF
:100E200006A8210001732100C181802080010A9061
:100E30000B9406A9280000F053FA3000FFF7E3FDF9
:100E40004020009002200190029403940494052015
:100E5000059069469020C00500F0E9FB1AB070BD0E
:100E6000FFF3FFFFFFCFFFFF30060020002C014003
:100E70001CB504002068424988420AD18020000144
:100E800040490A6802430A600968084000900098D7
:100E900022E020683449884209D102213A48026898
:100EA0000A430260006801400091009814E0206845
:100EB0002F49884210D11021334802680A4302604A
:100EC000006801400091009800220021112000F0EC
:100ED0005CFC112000F063FC13BD0000E703000080
:100EE00010B586B0040014220021684600F0E2F834
:100EF00020682349884218D180218902234802684A
:100F00000A43026000680140059105988020800036
:100F10000090022101910020029003900491694603
:100F20009020C00500F054FC1AE020680E49884269
:100F300016D180210903154802680A43026000683F
:100F4000014005910598802040000090022001900A
:100F5000002002900390049069460D4800F038FC90
:100F600006B010BD7006002000040040B00600204E
:100F7000001000407FBB0000000002400044014020
:100F8000002C0140181002401C10024014100240B6
:100F90000008004870477047704770477047FEE789
:100FA00080B500F037FD00F034F800F043FD00F0AC
:100FB00021FEFFF73DFE00F037FE00F0BFFE00F01F
:100FC00021FFFFF7C6FDFFF7B3FE00F077FF00F04B
:100FD000C5FFFFF781FE00F0CFFF01F047F801F0F9
:100FE000E7F810202B490860802080022A49086019
:100FF0002A48FFF77FF88020C001294908600820AF
:101000002849086000F0BCFF01F034F801F0D4F882
:10101000F8E730B591B03422002104A800F04AF876
:1010200010220021684600F045F8112004900120AC
:101030000590099010200A9002240D94802040020F
:101040000E908020C0020F900025109504A801F09A
:10105000CFF8002801D000F029F807200090019473
:10106000029503950121684601F072FB002801D02A
:1010700000F01CF811B030BD10B5040007488442E0
:1010800007D100F0EFFF08480168802292004A4033
:10109000026010BD085801400C580140B006002005
:1010A00018080048180000481408004870477047A6
:1010B0007047704710B504000800110002002000BE
:1010C00001F06CFC200010BD70B502003C20105CEB
:1010D000012801D102202DE001203C23D05402231D
:1010E0003D24135513685D6813689B687024A543FD
:1010F0000C682C4315686C601568274EB5420CD0FF
:1011000015688026F605B54207D01568234EB5420E
:1011100003D01568224EB54206D18025AB431D0091
:101120004B682B431568AB603D25505500203C258E
:101130005055002070BD30B50200002003003C2453
:10114000145D012C01D1022023E001243C255455DB
:10115000FF24A343CC681C43124D25408B682B43CE
:10116000114C1C404B682343104C1C400B6823431C
:101170000F4C1C400B692343064C1C404B69234316
:101180000C4C1C40CB692343146863643C24105509
:10119000002030BDFFDFFFFF002C014000040040B5
:1011A00000400140FFFCFFFFFFFBFFFFFFF7FFFFD9
:1011B000FFEFFFFFFFBFFFFF81627047C162704713
:1011C000016370474163704781637047C163704733
:1011D00001647047416901220A4342617047F8B5D2
:1011E00004000E002568234FBC4206D08020C005B5
:1011F000844202D03648844204D1702085432800BE
:1012000075680543BC4212D08020C00584420ED0D0
:101210002F4884420BD02F48844208D02E48844265
:1012200005D02E48844202D04148844203D141482F
:101230002840F56805432560B1682000FFF7BEFF30
:1012400031882000FFF7B8FFBC4208D02248844212
:1012500005D02248844202D03548844203D1317CF3
:101260002000FFF7ADFF2000FFF7B4FF0020F2BD24
:1012700000000000002C0140F8B504000E0017002B
:1012800001253000401E08D00F380CD0F03810D0A7
:10129000F0210901401A12D017E03900200000F0B7
:1012A0004BF8050011E03900200000F087F8050038
:1012B0000BE03900200000F0C7F8050005E0390018
:1012C000200000F005F90500FFE72800C0B2F2BDDC
:1012D0000004004000200040004001400044014064
:1012E00010B402000020FF2398430B7B0343114CF2
:1012F0001C4088682043914B034048681843904B3A
:101300000340086818438F4B0340C88903438E4C41
:101310001C40086920438D4B0340486918438C4C9E
:1013200004404B6923435364002010BC7047000005
:1013300000480140FFFCFFFFF8B504000F00206AE1
:10134000012188432062206A6668A16903229143D3
:10135000702291433A680A43009202218843396916
:101360000143012081437D680D437A48844208D0BF
:101370007948844205D07948844202D07848844232
:1013800012D10820854378698000284304218843CE
:10139000B9688D00054373493140B8690843724903
:1013A0000140F86946000E4366600098A061F96844
:1013B0002000FFF707FF25620020F2BDF8B504000A
:1013C0000F001020C043216A01402162216A666833
:1013D000A269664B1340664A1A403B681B021343DE
:1013E0000093202291433A6912010A431040796820
:1013F0000D0105435748844208D05748844205D020
:101400005648844202D05648844213D180208543F6
:1014100078698001284340218843B9688D010543DC
:1014200046493140B8698000084345490140F869A0
:10143000C6000E4366600098A061F9682000FFF7BF
:10144000C3FE25620020F2BDF8B504000F00454838
:10145000216A01402162216A6668E26903239A4396
:1014600070239A433B68134300933F4A0A4039690B
:1014700009021143084079680D020543354884424A
:1014800008D03548844205D03448844202D03448DC
:10149000844213D12A4929407869800208432749A8
:1014A0000140B86885020D4326493140B869000102
:1014B000084325490140F86946010E4366600098DB
:1014C000E061F9682000FFF781FE25620020F2BD8F
:1014D000F8B504000E001B48216A01402162216A10
:1014E0006568E269214B1340214A1A4033681B02A8
:1014F00013430093144A0A40316909031143084019
:1015000071680F0307431348844208D0124884428D
:1015100005D01248844202D01148844204D10B48BD
:101520002840B1698D01054365600098E061F1686C
:101530002000FFF74DFE27620020F2BDFFFBFFFFFA
:10154000FFF7FFFFFFEFFFFFFFDFFFFFFFBFFFFF23
:10155000FF7FFFFF002C014000400140004401409C
:1015600000480140FFFEFFFFFFFDFFFFFFFCFFFF04
:10157000FF8FFFFF30B403680C004C4303256C431E
:10158000A3430C004C4354431C43046030BC7047DD
:1015900010B443688B430C0054431C43446010BC9C
:1015A000704730B483680C004C4303256C43A3435D
:1015B0000C004C4354431C43846030BC704730B42F
:1015C000C3680C004C4303256C43A3430C004C43FD
:1015D00054431C43C46030BC704730B4036A0C00F1
:1015E0004C434C434C430F256C43A3430C004C43EA
:1015F0004C434C4354431C43046230BC704730B4EA
:10160000446A0B0A0D0A6B430D0A6B430D0A6B43C8
:101610000F256B439C430B0A0D0A6B430D0A6B436A
:101620000D0A6B4353432343436230BC7047F8B504
:1016300006000C0000252068E84000282DD0206816
:101640000121A94001400F00002F24D06268390019
:101650003000FFF78FFF6068012802D06068022821
:1016600004D1A26839003000FFF79BFF22693900DE
:101670003000FFF7A4FF606802280CD1FF2F05D8C7
:10168000626939003000FFF7A8FF04E062693900A1
:101690003000FFF7B4FF6D1CCDE76068012802D071
:1016A0006068022804D1E26821683000FFF770FF0B
:1016B0000020F2BD00B5010049B2002905D4012186
:1016C000C206D20E91403C4A116000BDF0B5020046
:1016D00052B2002A1CD40322384B040064B2A4087E
:1016E00004256C431C59FF251600064008277E433D
:1016F000B540AC438D01EDB20240082672439540DF
:101700002543020052B29208042462439D5022E015
:101710000F242B4A032305006DB22540083DAD0878
:1017200004267543060076B23440083CA40804261B
:1017300074431659FF27BC461C00044008277C430D
:101740006746A740BE438C01E4B2034008277B43B1
:101750009C4034435451F0BD10B50400601E8021FC
:101760004904884201D301200EE0601E154908603B
:1017700003210020C043FFF7A9FF002012490860A1
:10178000072012490860002010BD70B505000C004C
:1017900016002100280040B2FFF798FF70BD10B579
:1017A0000400200040B2FFF785FF10BD10B5040013
:1017B0002000FFF7D1FF10BD00E100E000E400E0F1
:1017C0001CED00E014E000E018E000E010E000E0B4
:1017D000FCB5020000240868E040002800D1F6E0D3
:1017E000012508682E00A6400640019601980028B1
:1017F00000D1EAE04868022802D0486812281FD1C8
:10180000E008042670431018076A072000970F2687
:10181000B44627000740042677436646BE40009F33
:10182000B743BC460E6927003840042778438640FA
:1018300067463E433300E0080426704310180362F5
:1018400017680326BC462700022047433000B840F3
:101850006746874300974F683740BC462000022701
:101860007843674687400098074317604868012817
:1018700008D04868022805D04868112802D0486876
:10188000122820D193689C46230002204343300055
:101890009840634683430093C8688446230002202F
:1018A000434360469840009B184300900098906026
:1018B00053682800A0408343486800092840A0409E
:1018C000184307005760D3689C4623000220434317
:1018D000300098406346834300938B689C46200009
:1018E000022358436346834000980343D36048680B
:1018F000C0006AD5364807682F4307600068284053
:10190000009000983A488446A70804204743604660
:10191000C05900900F27BC462700300038400427EC
:101920007843674687400098B8439027FF05BA423E
:1019300001D1002512E02F4B9A420FD02E4B9A4234
:1019400001D102250AE02D4B9A4201D1350005E074
:101950002B4B9A4201D1042500E0052523001E40AF
:1019600004235E43B54005432148A308042673437E
:10197000C550244B1868019EB0434E68F60302D54B
:1019800005000198284318601F4D2B68019EB34342
:101990004E68B60302D51800019B03432B601B4D14
:1019A0002868019EB0434E68F60202D503000198F4
:1019B00018432860164D2B68019EB3434E68B6024B
:1019C00002D51800019B03432B60641C03E7F3BDA1
:1019D0001810024000B51300DBB2002B03D00B003F
:1019E0009BB2836102E00B009BB2836200BD0000EA
:1019F000080001400004004800080048000C0048AE
:101A000000100048000401400404014008040140A3
:101A10000C04014080B50648016810220A430260A8
:101A2000002000F0E3FF01F009F8002002BD0000F3
:101A300000200240F8B586B0142200216846FFF766
:101A400039FB802109033C4802680A4302600268AE
:101A50001140059105998021C90302680A4302607B
:101A600002681140059105998021890202680A43A4
:101A7000026002681140059105998021C90202683F
:101A80000A43026000680140059105982B4C002232
:101A900021002B48FFF79EFF2A4E9027FF050022CA
:101AA00031003800FFF796FF0022E0212648FFF7BB
:101AB00091FF009401240194002502950395694645
:101AC0001F48FFF785FE009601940295039569462D
:101AD0003800FFF77DFE80200090022001900295E3
:101AE00003260396049569463800FFF771FE20200F
:101AF00000900195029569461148FFF769FE00962E
:101B000012480190029569460F48FFF761FE802058
:101B1000400100900195029569463800FFF758FE94
:101B2000E020009001940295039569460648FFF76E
:101B30004FFE07B0F0BD00BF14100240CC620000A1
:101B4000000800480B0D00000004004800001110C0
:101B500000B5010049B2002905D40121C206D20E08
:101B600091402D4A116000BDF0B5020052B2002A2A
:101B70001CD40322294B040064B2A40804256C433E
:101B80001C59FF251600064008277E43B540AC438C
:101B90008D01EDB2024008267243954025430200B4
:101BA00052B29208042462439D5022E00F241C4A42
:101BB000032305006DB22540083DAD08042675439A
:101BC000060076B23440083CA40804267443165933
:101BD000FF27BC461C00044008277C436746A740FB
:101BE000BE438C01E4B2034008277B439C4034434E
:101BF0005451F0BD80B501200A490A6802430A60C9
:101C0000096808400090009800210A20FFF7ACFF07
:101C10000A20FFF79DFF01BD00E100E000E400E0C5
:101C20001CED00E0141002401FB50C220021684694
:101C3000FFF740FA3C4C3D48206000206060A06007
:101C4000E06001212161042262610200227602002B
:101C500062760200A2760200E276FF22C232E261E0
:101C600020622422A054A162200000F001FF00287D
:101C700001D0FFF71BFA0220009080204001019064
:101C80008020400502906946200000F0D7FF002820
:101C900001D0FFF70BFA0E2000906946200000F0FB
:101CA000CDFF002801D0FFF701FA1FBD70B586B047
:101CB00006001422002101A8FFF7FCF930681B4937
:101CC00088422FD18020800019490A6802430A60A7
:101CD0000968084000900098802189021548026830
:101CE0000A430260026811400091009980210903B3
:101CF00002680A43026000680140009100980420D5
:101D00000190032402940025039501A99020C005A9
:101D1000FFF75EFD102001900294039501A906488B
:101D2000FFF756FD06B070BDF0050020002401400D
:101D30001810024014100240000800481CB5082288
:101D400000216846FFF7B6F92A4C2B482060200096
:101D500001F03CF8002801D0FFF7A8F9002000901E
:101D6000019000226946200001F046F8002801D0C9
:101D7000FFF79CF910226946200001F03DF8002889
:101D800001D0FFF793F913BD10B586B004001422FB
:101D9000002101A8FFF78EF920681749884226D153
:101DA0008020800515490A6802430A6009680840D6
:101DB000009000988020800211490A6802430A605E
:101DC000096808400090009830200190032002909C
:101DD0000020039001A99020C005FFF7F9FC002224
:101DE00000211120FFF7D1FC1120FFF7D8FC06B02D
:101DF00010BD0000F0060020007400401C100240DE
:101E00001410024080B52848284901608221490009
:101E1000416000218160C0229200C2600161416185
:101E20008022D20282610822C26101624162816223
:101E30000723C3620163426301F040F8002801D028
:101E4000FFF734F901BD10B586B00400142200215B
:101E500001A8FFF72FF920681449884221D180207A
:101E6000C00113490A6802430A60096808400090EB
:101E700000988020C0020F490A6802430A6009687E
:101E8000084000900098F02000020190022002908B
:101E90000020039003210491059001A90648FFF753
:101EA00097FC06B010BD00008C05002000380040F3
:101EB0001C100240141002400004004880B5224863
:101EC00022490160E1214902416000218160C16035
:101ED00001610C2242618161C1610162416201F0D4
:101EE00059F8002801D0FFF7E1F801BD10B586B020
:101EF00004001422002101A8FFF7DCF82068134930
:101F000088421ED1202012490A6802430A600968EB
:101F1000084000900098802000030E490A680243A0
:101F20000A6009680840009000980320019002218F
:101F30000291002203920490059101A90648FFF73F
:101F400047FC06B010BD00000C0500200014014045
:101F500018100240141002400008004880B50349E0
:101F6000034801F0F4FA0349087001BD1807002086
:101F7000080000202B07002000203149088070470E
:101F8000F8B50120694608702D480188002902D063
:101F9000282905D04EE000216A46117028210180D1
:101FA00069460978002903D026490A78002A01D118
:101FB000012043E0244A254B1B681360244B002476
:101FC0001C708024A400234D2C600D786E1E0E70B2
:101FD000EDB2002DDFD0204D2C601678F60704D529
:101FE0008026F6001D4F3E6002E08026F6002E603F
:101FF0005678F60704D580252D01184E356002E08D
:10200000802636012E601578EDB26D081570557872
:10201000EDB26D085570114D2C6095786D001D70F6
:1020200095780F4E3668360B3700FF07FF0F2F43AA
:102030001F70CAE70022110002800320F2BD0000D9
:10204000240700202A070020140700201007002082
:10205000160700201808004828000048180000480B
:10206000100000480120464908707047002045498B
:1020700008807047F8B501242500424E30880028BA
:1020800002D0582845D05FE0FEF752FE0020010044
:102090000A00D2B22D2A31DA3B4FFF2294460B00C0
:1020A000DBB2052253436246D31A9C460B00DBB2D7
:1020B00004225343FA1863469370FF2294460B00A0
:1020C000DBB2052253436246D21A94460B00DBB2C0
:1020D000042253436246FA54FF2294460B00DBB2BB
:1020E000052253436246D31ABC460A00D2B20427E3
:1020F0007A436746BA185370491CC9E78721C9005B
:10210000884204D20100214A1154401CF6E75820AD
:1021100030801B490878002801D1002018E00020F9
:1021200002000A701A49086045211A4A116080218C
:102130000902194A116019490C60194908601948C7
:10214000046019480460E2E70020010030800320A9
:10215000F2BD00B50020124908600D490A68521C02
:102160000A600A688723DB009A4202D30E4908609E
:1021700004E006480968405C0C49086000BD0000A6
:102180002C07002028070020580400201C000020F5
:10219000200700202C4401404444014020440140D9
:1021A000104401400C4401400044014034440140CB
:1021B00000200E490880704700B501210B480288B5
:1021C000002A02D0172A04D00AE0002211001722A8
:1021D00002800A00D2B2002A01D1012004E0F4E713
:1021E00000231A000380032000BD00002607002002
:1021F000F8B584B00400002C01D101209EE22078C3
:10220000C00768D50C20B8490A680240042A0BD0E0
:102210000A681040082810D10868C021490201400E
:1022200080204002814208D1B0480068800352D526
:10223000606800284FD1012080E26068012806D143
:10224000AA480168802252020A43026024E06068C2
:10225000002809D1A5480168A54A0A400260016822
:10226000A44A0A40026017E0606805280BD19F4825
:1022700001688022D2020A43026001688022520271
:102280000A43026008E099480168994A0A400260DE
:102290000168984A0A400260606800280DD001F089
:1022A00061F9050091480068800314D401F05AF9DF
:1022B000401B6528F6D3032040E201F053F90500E6
:1022C0008A480068800306D501F04CF9401B652858
:1022D000F6D3032032E2022620683040002854D092
:1022E0000C2081490A680240002A0BD00A6810407D
:1022F000082819D10868C021490201408020000245
:10230000814211D1794801683140002904D0E16847
:10231000012901D0012011E20168F82291432269CC
:10232000D2000A43026030E0E06800281AD06F4F04
:10233000386801210143396001F014F9050038685B
:102340003040002806D101F00DF9401B0328F6D3D8
:102350000320F3E13868F82188432169C90001436B
:10236000396012E0614F386801218843386001F01C
:10237000F9F8050038683040002806D001F0F2F87E
:10238000401B0328F6D30320D8E12078000728D586
:10239000E069002812D0A94F386801210143396053
:1023A00001F0E0F8050038683040002819D101F04C
:1023B000D9F8401B0328F6D30320BFE19F4F3868AC
:1023C00001218843386001F0CDF8050038683040BD
:1023D000002806D001F0C6F8401B0328F6D30320DE
:1023E000ACE1042720683840002800D18DE00020AF
:1023F0006946087080204005BD49096801400029F0
:102400000AD1BB490A6802430A6009680840039080
:102410000398012069460870B6480068C00514D4C6
:10242000B4480068802149000143B248016001F0CE
:1024300099F80500AF480068C00506D401F092F88D
:10244000401B6528F6D3032078E1A068012805D158
:10245000BB48016801220A43026021E0A06800280D
:1024600009D1B74801680122914301600168042243
:102470009143016014E0A068052808D1B0480168C4
:1024800039430160016801220A43026008E0AC4858
:1024900001680122914301600168042291430160B7
:1024A000A06800280FD001F05DF80500A44800687E
:1024B0003040002820D101F055F8401BA149884246
:1024C000F4D303203AE101F04DF805009C48006880
:1024D0003040002810D001F045F8401B994988424F
:1024E000F4D303202AE100BF041002400010024090
:1024F000FFFFFEFFFFFFFBFF68460078012804D1C5
:102500007B480168904A0A4002602078C00650D596
:102510006069012822D18D48006807438B48076015
:102520008A480068012101438848016001F01AF8D7
:102530000500864800683040002806D101F012F8F6
:10254000401B0328F5D30320F8E080480168F822F7
:102550009143A269D2000A4302602AE00421C943E0
:10256000606988420BD179480268114001600168B6
:10257000F8229143A269D2000A43026019E073482D
:10258000006807437148076070480068012188436C
:102590006E49086000F0E6FF05006C4800683040B6
:1025A000002806D000F0DEFF401B0328F5D30320EF
:1025B000C4E02078800643D50C20B4490A68024064
:1025C0000C2A09D00A68104008280ED1C020400209
:1025D00009680140814208D15C480068C0032FD5DA
:1025E000206A01282CD00120A8E0206A002813D0FE
:1025F000564F8026760238683043386000F0B2FFCC
:1026000005003868304000281AD100F0ABFF401BAD
:102610000328F6D3032091E04C4E30689C490140DA
:10262000316000F09FFF05003068C00308D500F05E
:1026300099FF401B0328F7D303207FE024100240BA
:10264000606A002879D0914800680C21014008296F
:1026500052D0606A022838D18E4F38688E490140C6
:10266000396000F07FFF00908026B6043868304063
:10267000002807D000F076FF0099401A0328F3D312
:1026800003205BE0854801680F229143226B0A43D7
:1026900002607E480168824A0A40E16A1143A26AE8
:1026A0000A4302603868802149040143396000F020
:1026B00059FF05003868304000283ED100F052FF35
:1026C000401B0328F6D3032038E0724E306872496D
:1026D0000140316000F046FF0500306880012CD5D4
:1026E00000F040FF401B0328F7D3032026E000BF83
:1026F0001C10024000700040606A012801D10120D6
:102700001CE06248006801906448006802900198EB
:10271000C02149020140A06A81420CD10298000701
:10272000000F216B884206D10198F02189030140F6
:10273000E06A814201D0012000E0002005B0F0BD38
:102740002010024089130000FFFFFFEF3410024009
:10275000F3B581B00400002C01D1012094E00125E3
:10276000804E30682840029988420CD2306801219E
:1027700088430299014331603068284002998842B9
:1027800001D0012080E002202168014000290FD003
:102790002178490705D53D490A68E023DB0013434A
:1027A0000B603A490A68F0239A43A36813430B600D
:1027B0002168294000293BD06168012905D13548AD
:1027C000006880031AD401205EE06168022905D107
:1027D00030480068800111D4012055E06168032968
:1027E00005D161480068C00308D401204CE02949A4
:1027F00009680840002801D1012045E0234F3868CE
:102800000321884361680143396000F0ABFE00900A
:1028100038680C21014060688000814208D000F0D7
:10282000A1FE0099401A51498842F1D303202BE0C0
:1028300002983168294088420CD2306801218843CF
:10284000029901433160306805400298854201D009
:10285000012019E02078400706D50C480168444A59
:102860000A40E1681143016000F01CF84149074A41
:10287000126812091207120F895CC8403E490860AD
:10288000002000F0B3F80020FEBD0000041002405C
:10289000FFFFFEFF00100240FFFFFFFE2C10024072
:1028A000FF7FC2FFF0B589B005A83549102200F0BE
:1028B0005FFE01A83349102200F05AFE00242000D8
:1028C0000094250026002D490F680C213940042969
:1028D00004D0082904D00C2930D031E02A4830E057
:1028E0000F2005A9BA0C0240895C0E0001A9274AF5
:1028F00012681040085C0090C0204002010039407E
:1029000080225202914206D11F48009900F04AFEEF
:102910007043050010E001003940814206D11C4897
:10292000009900F03FFE7043050005E0194800994A
:1029300000F038FE70430500280002E0144800E073
:10294000144809B0F0BD0C480068704780B5FFF727
:10295000FAFF1149094A1268120A5207520F895C9C
:10296000C84002BD0020024034100240891300001C
:10297000FFF8FFFF0C38000804000020041002409C
:10298000EC370008FC3700080024F4002C1002404B
:10299000006CDC0200127A00383800081206130AB4
:1029A0001A43130C1A4300BF094205D0830705D010
:1029B0000270401C491EF9D1704700001300103905
:1029C00006D330B41400150010393CC0FCD230BC22
:1029D000490700D30CC000D504C0890002D302808F
:1029E000801C002900D502707047FEE710B5040076
:1029F000FA2080000E49097800F0D4FD01000D484E
:102A0000006800F0CFFDFEF7D1FE002801D00120C4
:102A10000CE0042C09D2002221000020C043FEF764
:102A2000B4FE05480460002000E0012010BD00BF96
:102A300054040020040000200000002081B0012088
:102A400009490A6802430A60096808400090009832
:102A50008020400505490A6802430A600968084069
:102A60000090009801B07047181002401C100240FE
:102A7000F8B5040000252F002E00002C01D1012004
:102A8000D4E0A06B002806D1E5632800342160540F
:102A90002000FFF70BF91020A16B0140002900D0A6
:102AA000BDE03900C9B2002900D0B8E00422216895
:102AB00089681140002900D0B1E0A36B5C4919403E
:102AC00002230B43A363216889688907890F0129C1
:102AD0000AD1012123681B680B40002B03D1236816
:102AE000DB681B0400D500E0290000290FD1216814
:102AF000C96818239943A3680B432168CB602168F8
:102B000009698B009B086168194323681961216872
:102B1000CB68484919402368D960A16A012902D0CD
:102B20008021490100E029002369022B00D02A00FE
:102B3000B446237E9E03637EDB033343A67E760387
:102B40001E433143E3680B431A432421615C4E006A
:102B5000164361460E43E17E01290FD1A17E002973
:102B600004D13100802676020E4307E0A16B2022BB
:102B70000A43A263E16B01220A43E263E169FF2297
:102B8000C232914204D03200E169266A0E431643F4
:102B90002168C96831432268D160E16A8022520508
:102BA000914214D0E16A012911D0E16A02290ED0C4
:102BB000E16A03290BD0E16A042908D0E16A0529FA
:102BC00005D0E16A062902D0E16A07290ED1216801
:102BD00049690722914322685161216849692C2281
:102BE000A25C5207520F0A4321684A612168C968F2
:102BF000114A0A40B24207D1E563A06B0221884323
:102C000001210143A1630FE0A16B0222914308431C
:102C1000A0630120E16B0143E163070004E0A16BC5
:102C20000843A063012007003800C0B2F2BD0000D5
:102C3000FFFEFFFF1902FEFFE7FF3F83F8B5040028
:102C40000D0000273E00009780214905E06A884278
:102C500013D0E06A012810D0E06A02280DD0E06AA3
:102C600003280AD0E06A042807D0E06A052804D0C7
:102C7000E06A062801D0E06A07283420205C012899
:102C800001D1022098E0012210003423E054206892
:102C90008068400700D586E06868484B98425FD05E
:102CA0002068806A2B689A40024320688262E06A4A
:102CB000884228D0E06A012825D0E06A022822D084
:102CC000E06A03281FD0E06A04281CD0E06A0528C7
:102CD00019D0E06A062816D0E06A072813D007202A
:102CE000A96822685269024091420CD02168496962
:102CF000072291432268516121684969AA681040FE
:102D00000843216848612868102805D028681128E0
:102D100002D0286812284BD12868102802D18020C0
:102D2000000407E02868112802D18020C00301E0D8
:102D30008020400422490A6810430860286810284F
:102D400036D120480068204900F02CFC0A21484375
:102D50000090009800282BD00098401E0090F8E7C3
:102D60002068806A29688A409043216888622868C0
:102D7000102805D02868112802D02868122817D1F9
:102D80002868102802D18021090407E0286811284A
:102D900002D18021C90301E080214904084802686A
:102DA0008A43026004E0A06B20210143A163160066
:102DB000342027543000C0B2F2BD000001100000E2
:102DC000082701400400002040420F0010B5040015
:102DD000002C01D101200EE02079002804D1002030
:102DE00060712000FEF7D0FF0220207100202061DA
:102DF00001202071002010BDFCB5040000200190CE
:102E000000906379012B01D1022013E00126667145
:102E10000223237123681F68254B93409F430B684F
:102E20004D681D432B0093403B4327683B60267150
:102E300060710020F6BD10B504008020800121687B
:102E400009680140002915D02168496B014000291B
:102E500010D004212171216901220A4322612168D5
:102E60004863206800681349014020680160200021
:102E700000F0EFFB802080052168096801400029EF
:102E800015D02168496B0140002910D0042121711F
:102E9000216902220A432261216848632068006890
:102EA0000549014020680160200000F0D3FB10BDFF
:102EB000FE0F0000FFEFFFFFFFFFFFEF70B5040004
:102EC000002C01D1012060E0606A00280025A56285
:102ED0005D20205C002805D128005C216054200082
:102EE000FEF7B1FF022001005D22A15421680968AC
:102EF00040229143226811602449E2688A4201D34A
:102F00002A0001E080225201E368F0263601B34234
:102F100005D0E368E026F600B34200D0A562236B3B
:102F2000002B06D1E3688B4201D3206301E001202E
:102F300020636068A1680143206908436169014317
:102F4000A06980239B0018400843E1690143206A7F
:102F50000843A16A014320680160A069000C0421B4
:102F60000840616A0143606B0843E1680143114313
:102F7000206841602068C069054901402068C1613E
:102F8000256601205D216054002070BD010700000E
:102F9000FFF7FFFF10B50400002C01D1012035E040
:102FA000A0690028FFD1606F002805D100207021A2
:102FB00060542000FEF79AFF2420606720680068B4
:102FC0000121884321680860200000F023F80128CF
:102FD00001D101201AE0606A002802D0200000F030
:102FE00077F9206840680A490140206841602068FC
:102FF00080682A2188432168886020680068012150
:10300000014320680160200000F0D8F910BD0000E5
:10301000FFB7FFFFFEB50500002637003000694608
:103020000870A868296901436A690A43E86910437E
:10303000296809689F4A0A40024329680A6029688A
:1030400049689D4A0A40E96811432A685160A969A4
:103050002A6A0A43029229688968984A0A400299B2
:1030600011432A6891602968954A914215D1954883
:1030700000688007800F002805D0022809D006D3F9
:10308000032802D007E034006AE0022468E0042448
:1030900066E0082464E0102462E028688A498842D7
:1030A0001DD188480068C0218902014000290CD048
:1030B0008020400281420CD08020800281420AD0D0
:1030C000C0208002814202D007E0340048E00224A0
:1030D00046E0042444E0082442E0102440E028684C
:1030E0007A4988421DD177480068C0210903014010
:1030F00000290CD08020C00281420CD08020000327
:1031000081420AD0C0200003814202D007E034008F
:1031100026E0022424E0042422E0082420E01024F5
:103120001EE02868A249884201D1340018E02868CE
:10313000A049884201D1340012E028689E498842A3
:1031400001D134000CE02868B449884201D1340030
:1031500006E02868B249884201D1340000E010241A
:1031600080200002E969814258D12000C0B20028C5
:1031700006D0022813D004281BD0082828D032E01B
:10318000FFF7E4FB01900198022148436968490870
:103190004018696800F006FA80B2070026E0686807
:1031A0004008A0494018696800F0FCF980B20700A7
:1031B0001CE0FFF777FB0190019802214843696802
:1031C00049084018696800F0EDF980B207000DE089
:1031D00068684008802149024018696800F0E2F9F7
:1031E00080B2070002E0012069460870102F11D359
:1031F0008020400287420DD23900B5480840790846
:103200004907490F0143684641806846408829685C
:10321000C8604AE001206946087046E02100C9B252
:10322000002906D0022911D0042919D0082924D058
:103230002CE0FFF78BFB0190019869684908401862
:10324000696800F0AFF980B2070022E068684008C2
:10325000A0494018696800F0A5F980B2070018E09D
:10326000FFF720FB019001986968490840186968D8
:1032700000F098F980B207000BE069684908081867
:10328000696800F08FF980B2070002E0012069460A
:103290000870102F06D380204002874202D228688F
:1032A000C76002E00120694608702E666E666846B7
:1032B0000078FEBDF369FFEFFFCFFFFFFFF4FFFFD4
:1032C00000380140301002400044004000480040F7
:1032D00000B52421415CC90707D5016849687E4AC9
:1032E0000A40816A1143026851602421415C8907C8
:1032F00007D501684968794A0A40C16A11430268E2
:1033000051602421415C490707D501684968744A26
:103310000A40016B1143026851602421415C090796
:1033200007D5016849686F4A0A40416B114302683A
:1033300051602421415CC90607D5016889686A4A41
:103340000A40816B1143026891602421415C890627
:1033500007D501688968654A0A40C16B1143026854
:1033600091602421415C490614D501684968604A8E
:103370000A40016C114302685160016C80225203C3
:10338000914207D1016849685A4A0A40416C114389
:10339000026851602421415C090607D5016849682B
:1033A000554A0A40816C11430268516000BD00001B
:1033B000004C004000500040001401407CB5050066
:1033C0000024EC6700F0CEF80600286800680007CB
:1033D0000CD54A4800903300002280218903280040
:1033E00000F022F8002801D0032016E028680068C9
:1033F00040070CD541480090330000228021C903CA
:10340000280000F011F8002801D0032005E020205A
:103410006867A86770202C54002076BD0018014012
:10342000001C01400024F400F4B504000D001F004E
:10343000069E2068C0692840A84201D1012000E012
:10344000002069460978884240D10020C043864266
:10345000EFD000F087F8C01B864201D3002E13D1B5
:103460002068006826490140206801602068806863
:10347000012188432168886020206067A0670020C0
:1034800070216054032022E0206800684007D0D5F6
:10349000802000012168C96901400029C9D0216844
:1034A00008622068006816490140206801602068B1
:1034B0008068012188432168886020206067A067B8
:1034C000E067002070216054032000E00020F2BD7E
:1034D000F0FF000000127A00FFFFFDFFFFFFFEFF7C
:1034E000FFFFFBFFFF7FFFFFFFEFFFFFFFDFFFFFA0
:1034F000FFFFEFFFFFFF9FFFFFFFF7FFFFFFFF0152
:103500005FFEFFFFF4B50200012000242300144DEC
:103510006E7A022E19DA6E7AAC556E7A04277E43E3
:10352000AE1972606E4636786F7AEF193E726E7A17
:1035300037007F1C6F7233001D0030350D703A2547
:103540004D702F258D70CC702000C0B2F2BD38B503
:1035500005000C00002221002800FFF7D3FF32BD38
:103560000407002001480068704700BF1C070020C6
:1035700070B4103A03D378C9103A78C0FBD253071D
:1035800001D318C918C001D508C908C0D20704D38F
:103590000B880380891C801C002A01D50B780370DE
:1035A00070BC70470022030A8B420BD203098B4286
:1035B00019D243088B422ED2411A00D20146524101
:1035C00010467047FF2209023FD012068B4205D3F6
:1035D000121209028B4201D31212090203098B4213
:1035E00019D300E0090AC3098B4201D3CB01C01AE9
:1035F000524183098B4201D38B01C01A52414309C6
:103600008B4201D34B01C01A524103098B4201D3B3
:103610000B01C01A5241C3088B4201D3CB00C01A20
:10362000524183088B4201D38B00C01A5241430898
:103630008B4201D34B00C01A5241884200D3401A3A
:103640005241CFD201461046704708B500F004F849
:1036500008BD70477047FEE7704770B4012300242F
:1036600013E00168001D194202D04D466D1E491934
:103670000C60091D121F042AFAD20D00960701D50D
:103680000C80AD1C1A4000D02C700268001D002A6E
:10369000E7D170BC704730B50168411844686208D2
:1036A0008A188368E40704D54C461B1901E0641CA2
:1036B00006D191420BD00C7864B2491C0D78491C9C
:1036C0001D705B1C002CF2D4641EF7D5F1E70C30A2
:1036D00030BDFEE701000548012202700078704706
:1036E0000100024801220270007870475504002052
:1036F00010B40400002010BC704710B40400002077
:1037000010BC704703000120C0B27047704700B57D
:10371000FEE77047704780B500F012F801BD7047B2
:1037200080B50348FCF733FD0248FFF784FB01BD79
:10373000B0060020F006002080B5FEF70AFD01BDAE
:1037400003480168034A127889180160704700BF76
:103750001C0700205404002010B507497944183193
:10376000064C7C44163404E0081D0A688918884712
:103770000100A142F8D110BD0800000024000000A3
:10378000DBFEFFFFD802000058040020000000000C
:1037900007FFFFFFF20000006200000000000020B1
:1037A00000F00DF8002801D0FFF7D6FF00BF00BFE2
:1037B000002000BF00BFFDF7F3FB00F002F801207E
:1037C000704780B500F002F801BDFEE707463846B5
:1037D00000F002F8FBE7FEE780B500BF00BF024A39
:1037E00011001820ABBEFBE726000200020304050F
:1037F000060708090A0B0C0D0E0F10100102030436
:1038000005060708090A0B0C0D0E0F10000000003A
:103810000000000001020304060708090148804770
:1038200001480047853800082D38000800BF00BF58
:1038300000BF00BFFFF7B4FF000000000102030457
:10384000000000000404040000000800000008005C
:10385000081C3044586C8000FEE7FEE7FEE7FEE7F8
:10386000FEE7FEE7FEE7FEE7FEE7FEE7FEE7FEE730
:10387000FEE7FEE7FEE7FEE7FEE7FEE7FEE7FEE720
:10388000FEE7FEE770470004FC0017127A00D53609
:103890000008E1360008F1360008FB36000805375D
:1038A0000008178100810081008100810081008172
:0738B000008100C100FE01D0
:040000050800382D8A
:00000001FF
